{
  "_format": "hh-sol-artifact-1",
  "contractName": "Decentratwitter",
  "sourceName": "contracts/Decentratwitter.sol",
  "abi": [
    {
      "inputs": [],
      "stateMutability": "nonpayable",
      "type": "constructor"
    },
    {
      "anonymous": false,
      "inputs": [
        {
          "indexed": true,
          "internalType": "address",
          "name": "owner",
          "type": "address"
        },
        {
          "indexed": true,
          "internalType": "address",
          "name": "approved",
          "type": "address"
        },
        {
          "indexed": true,
          "internalType": "uint256",
          "name": "tokenId",
          "type": "uint256"
        }
      ],
      "name": "Approval",
      "type": "event"
    },
    {
      "anonymous": false,
      "inputs": [
        {
          "indexed": true,
          "internalType": "address",
          "name": "owner",
          "type": "address"
        },
        {
          "indexed": true,
          "internalType": "address",
          "name": "operator",
          "type": "address"
        },
        {
          "indexed": false,
          "internalType": "bool",
          "name": "approved",
          "type": "bool"
        }
      ],
      "name": "ApprovalForAll",
      "type": "event"
    },
    {
      "anonymous": false,
      "inputs": [
        {
          "indexed": false,
          "internalType": "uint256",
          "name": "id",
          "type": "uint256"
        },
        {
          "indexed": false,
          "internalType": "string",
          "name": "hash",
          "type": "string"
        },
        {
          "indexed": false,
          "internalType": "uint256",
          "name": "tipAmount",
          "type": "uint256"
        },
        {
          "indexed": false,
          "internalType": "address payable",
          "name": "author",
          "type": "address"
        }
      ],
      "name": "PostCreated",
      "type": "event"
    },
    {
      "anonymous": false,
      "inputs": [
        {
          "indexed": false,
          "internalType": "uint256",
          "name": "id",
          "type": "uint256"
        },
        {
          "indexed": false,
          "internalType": "string",
          "name": "hash",
          "type": "string"
        },
        {
          "indexed": false,
          "internalType": "uint256",
          "name": "tipAmount",
          "type": "uint256"
        },
        {
          "indexed": false,
          "internalType": "address payable",
          "name": "author",
          "type": "address"
        }
      ],
      "name": "PostTipped",
      "type": "event"
    },
    {
      "anonymous": false,
      "inputs": [
        {
          "indexed": false,
          "internalType": "uint256",
          "name": "id",
          "type": "uint256"
        },
        {
          "indexed": false,
          "internalType": "string",
          "name": "hash",
          "type": "string"
        },
        {
          "indexed": false,
          "internalType": "uint256",
          "name": "tipAmount",
          "type": "uint256"
        },
        {
          "indexed": false,
          "internalType": "address payable",
          "name": "author",
          "type": "address"
        }
      ],
      "name": "ReportCreated",
      "type": "event"
    },
    {
      "anonymous": false,
      "inputs": [
        {
          "indexed": true,
          "internalType": "address",
          "name": "from",
          "type": "address"
        },
        {
          "indexed": true,
          "internalType": "address",
          "name": "to",
          "type": "address"
        },
        {
          "indexed": true,
          "internalType": "uint256",
          "name": "tokenId",
          "type": "uint256"
        }
      ],
      "name": "Transfer",
      "type": "event"
    },
    {
      "inputs": [
        {
          "internalType": "address",
          "name": "to",
          "type": "address"
        },
        {
          "internalType": "uint256",
          "name": "tokenId",
          "type": "uint256"
        }
      ],
      "name": "approve",
      "outputs": [],
      "stateMutability": "nonpayable",
      "type": "function"
    },
    {
      "inputs": [
        {
          "internalType": "address",
          "name": "owner",
          "type": "address"
        }
      ],
      "name": "balanceOf",
      "outputs": [
        {
          "internalType": "uint256",
          "name": "",
          "type": "uint256"
        }
      ],
      "stateMutability": "view",
      "type": "function"
    },
    {
      "inputs": [],
      "name": "getAllPosts",
      "outputs": [
        {
          "components": [
            {
              "internalType": "uint256",
              "name": "id",
              "type": "uint256"
            },
            {
              "internalType": "string",
              "name": "hash",
              "type": "string"
            },
            {
              "internalType": "uint256",
              "name": "tipAmount",
              "type": "uint256"
            },
            {
              "internalType": "address payable",
              "name": "author",
              "type": "address"
            }
          ],
          "internalType": "struct Decentratwitter.Post[]",
          "name": "_posts",
          "type": "tuple[]"
        }
      ],
      "stateMutability": "view",
      "type": "function"
    },
    {
      "inputs": [],
      "name": "getAllReports",
      "outputs": [
        {
          "components": [
            {
              "internalType": "uint256",
              "name": "id",
              "type": "uint256"
            },
            {
              "internalType": "string",
              "name": "hash",
              "type": "string"
            },
            {
              "internalType": "uint256",
              "name": "tipAmount",
              "type": "uint256"
            },
            {
              "internalType": "address payable",
              "name": "author",
              "type": "address"
            }
          ],
          "internalType": "struct Decentratwitter.Report[]",
          "name": "_reports",
          "type": "tuple[]"
        }
      ],
      "stateMutability": "view",
      "type": "function"
    },
    {
      "inputs": [
        {
          "internalType": "uint256",
          "name": "tokenId",
          "type": "uint256"
        }
      ],
      "name": "getApproved",
      "outputs": [
        {
          "internalType": "address",
          "name": "",
          "type": "address"
        }
      ],
      "stateMutability": "view",
      "type": "function"
    },
    {
      "inputs": [],
      "name": "getMyNfts",
      "outputs": [
        {
          "internalType": "uint256[]",
          "name": "_ids",
          "type": "uint256[]"
        }
      ],
      "stateMutability": "view",
      "type": "function"
    },
    {
      "inputs": [
        {
          "internalType": "address",
          "name": "owner",
          "type": "address"
        },
        {
          "internalType": "address",
          "name": "operator",
          "type": "address"
        }
      ],
      "name": "isApprovedForAll",
      "outputs": [
        {
          "internalType": "bool",
          "name": "",
          "type": "bool"
        }
      ],
      "stateMutability": "view",
      "type": "function"
    },
    {
      "inputs": [
        {
          "internalType": "string",
          "name": "_tokenURI",
          "type": "string"
        }
      ],
      "name": "mint",
      "outputs": [
        {
          "internalType": "uint256",
          "name": "",
          "type": "uint256"
        }
      ],
      "stateMutability": "nonpayable",
      "type": "function"
    },
    {
      "inputs": [],
      "name": "name",
      "outputs": [
        {
          "internalType": "string",
          "name": "",
          "type": "string"
        }
      ],
      "stateMutability": "view",
      "type": "function"
    },
    {
      "inputs": [
        {
          "internalType": "uint256",
          "name": "tokenId",
          "type": "uint256"
        }
      ],
      "name": "ownerOf",
      "outputs": [
        {
          "internalType": "address",
          "name": "",
          "type": "address"
        }
      ],
      "stateMutability": "view",
      "type": "function"
    },
    {
      "inputs": [],
      "name": "postCount",
      "outputs": [
        {
          "internalType": "uint256",
          "name": "",
          "type": "uint256"
        }
      ],
      "stateMutability": "view",
      "type": "function"
    },
    {
      "inputs": [
        {
          "internalType": "uint256",
          "name": "",
          "type": "uint256"
        }
      ],
      "name": "posts",
      "outputs": [
        {
          "internalType": "uint256",
          "name": "id",
          "type": "uint256"
        },
        {
          "internalType": "string",
          "name": "hash",
          "type": "string"
        },
        {
          "internalType": "uint256",
          "name": "tipAmount",
          "type": "uint256"
        },
        {
          "internalType": "address payable",
          "name": "author",
          "type": "address"
        }
      ],
      "stateMutability": "view",
      "type": "function"
    },
    {
      "inputs": [
        {
          "internalType": "address",
          "name": "",
          "type": "address"
        }
      ],
      "name": "profiles",
      "outputs": [
        {
          "internalType": "uint256",
          "name": "",
          "type": "uint256"
        }
      ],
      "stateMutability": "view",
      "type": "function"
    },
    {
      "inputs": [],
      "name": "reportCount",
      "outputs": [
        {
          "internalType": "uint256",
          "name": "",
          "type": "uint256"
        }
      ],
      "stateMutability": "view",
      "type": "function"
    },
    {
      "inputs": [
        {
          "internalType": "uint256",
          "name": "",
          "type": "uint256"
        }
      ],
      "name": "reports",
      "outputs": [
        {
          "internalType": "uint256",
          "name": "id",
          "type": "uint256"
        },
        {
          "internalType": "string",
          "name": "hash",
          "type": "string"
        },
        {
          "internalType": "uint256",
          "name": "tipAmount",
          "type": "uint256"
        },
        {
          "internalType": "address payable",
          "name": "author",
          "type": "address"
        }
      ],
      "stateMutability": "view",
      "type": "function"
    },
    {
      "inputs": [
        {
          "internalType": "address",
          "name": "from",
          "type": "address"
        },
        {
          "internalType": "address",
          "name": "to",
          "type": "address"
        },
        {
          "internalType": "uint256",
          "name": "tokenId",
          "type": "uint256"
        }
      ],
      "name": "safeTransferFrom",
      "outputs": [],
      "stateMutability": "nonpayable",
      "type": "function"
    },
    {
      "inputs": [
        {
          "internalType": "address",
          "name": "from",
          "type": "address"
        },
        {
          "internalType": "address",
          "name": "to",
          "type": "address"
        },
        {
          "internalType": "uint256",
          "name": "tokenId",
          "type": "uint256"
        },
        {
          "internalType": "bytes",
          "name": "_data",
          "type": "bytes"
        }
      ],
      "name": "safeTransferFrom",
      "outputs": [],
      "stateMutability": "nonpayable",
      "type": "function"
    },
    {
      "inputs": [
        {
          "internalType": "address",
          "name": "operator",
          "type": "address"
        },
        {
          "internalType": "bool",
          "name": "approved",
          "type": "bool"
        }
      ],
      "name": "setApprovalForAll",
      "outputs": [],
      "stateMutability": "nonpayable",
      "type": "function"
    },
    {
      "inputs": [
        {
          "internalType": "uint256",
          "name": "_id",
          "type": "uint256"
        }
      ],
      "name": "setProfile",
      "outputs": [],
      "stateMutability": "nonpayable",
      "type": "function"
    },
    {
      "inputs": [
        {
          "internalType": "bytes4",
          "name": "interfaceId",
          "type": "bytes4"
        }
      ],
      "name": "supportsInterface",
      "outputs": [
        {
          "internalType": "bool",
          "name": "",
          "type": "bool"
        }
      ],
      "stateMutability": "view",
      "type": "function"
    },
    {
      "inputs": [],
      "name": "symbol",
      "outputs": [
        {
          "internalType": "string",
          "name": "",
          "type": "string"
        }
      ],
      "stateMutability": "view",
      "type": "function"
    },
    {
      "inputs": [
        {
          "internalType": "uint256",
          "name": "_id",
          "type": "uint256"
        }
      ],
      "name": "tipPostOwner",
      "outputs": [],
      "stateMutability": "payable",
      "type": "function"
    },
    {
      "inputs": [],
      "name": "tokenCount",
      "outputs": [
        {
          "internalType": "uint256",
          "name": "",
          "type": "uint256"
        }
      ],
      "stateMutability": "view",
      "type": "function"
    },
    {
      "inputs": [
        {
          "internalType": "uint256",
          "name": "tokenId",
          "type": "uint256"
        }
      ],
      "name": "tokenURI",
      "outputs": [
        {
          "internalType": "string",
          "name": "",
          "type": "string"
        }
      ],
      "stateMutability": "view",
      "type": "function"
    },
    {
      "inputs": [
        {
          "internalType": "address",
          "name": "from",
          "type": "address"
        },
        {
          "internalType": "address",
          "name": "to",
          "type": "address"
        },
        {
          "internalType": "uint256",
          "name": "tokenId",
          "type": "uint256"
        }
      ],
      "name": "transferFrom",
      "outputs": [],
      "stateMutability": "nonpayable",
      "type": "function"
    },
    {
      "inputs": [
        {
          "internalType": "string",
          "name": "_postHash",
          "type": "string"
        }
      ],
      "name": "uploadPost",
      "outputs": [],
      "stateMutability": "nonpayable",
      "type": "function"
    },
    {
      "inputs": [
        {
          "internalType": "string",
          "name": "_reportHash",
          "type": "string"
        }
      ],
      "name": "uploadReport",
      "outputs": [],
      "stateMutability": "nonpayable",
      "type": "function"
    }
  ],
  "bytecode": "0x60806040523480156200001157600080fd5b506040518060400160405280600f81526020017f446563656e7472617477697474657200000000000000000000000000000000008152506040518060400160405280600481526020017f4441505000000000000000000000000000000000000000000000000000000000815250816000908051906020019062000096929190620000b8565b508060019080519060200190620000af929190620000b8565b505050620001cd565b828054620000c69062000168565b90600052602060002090601f016020900481019282620000ea576000855562000136565b82601f106200010557805160ff191683800117855562000136565b8280016001018555821562000136579182015b828111156200013557825182559160200191906001019062000118565b5b50905062000145919062000149565b5090565b5b80821115620001645760008160009055506001016200014a565b5090565b600060028204905060018216806200018157607f821691505b602082108114156200019857620001976200019e565b5b50919050565b7f4e487b7100000000000000000000000000000000000000000000000000000000600052602260045260246000fd5b6145b980620001dd6000396000f3fe60806040526004361061019c5760003560e01c806370a08231116100ec578063bdd05adb1161008a578063d6313c0611610064578063d6313c0614610604578063d85d3d2714610620578063e985e9c51461065d578063f3d3ddfa1461069a5761019c565b8063bdd05adb1461055e578063c87b56dd14610587578063c942adf7146105c45761019c565b80639f181b5e116100c65780639f181b5e146104a4578063a22cb465146104cf578063b88d4fde146104f8578063bbe15627146105215761019c565b806370a082311461041357806385d3cb371461045057806395d89b41146104795761019c565b806317906c2e116101595780633056110011610133578063305611001461035957806342842e0e146103845780636352211e146103ad578063684b0834146103ea5761019c565b806317906c2e146102da578063185c6f841461030557806323b872dd146103305761019c565b806301ffc9a7146101a1578063047b07bf146101de57806306fdde0314610209578063081812fc14610234578063095ea7b3146102715780630b1e7f831461029a575b600080fd5b3480156101ad57600080fd5b506101c860048036038101906101c39190612f1c565b6106c5565b6040516101d5919061373b565b60405180910390f35b3480156101ea57600080fd5b506101f36107a7565b6040516102009190613719565b60405180910390f35b34801561021557600080fd5b5061021e6108f7565b60405161022b9190613756565b60405180910390f35b34801561024057600080fd5b5061025b60048036038101906102569190612faf565b610989565b604051610268919061366e565b60405180910390f35b34801561027d57600080fd5b5061029860048036038101906102939190612ee0565b610a0e565b005b3480156102a657600080fd5b506102c160048036038101906102bc9190612faf565b610b26565b6040516102d19493929190613a7f565b60405180910390f35b3480156102e657600080fd5b506102ef610bfe565b6040516102fc9190613a18565b60405180910390f35b34801561031157600080fd5b5061031a610c04565b6040516103279190613a18565b60405180910390f35b34801561033c57600080fd5b5061035760048036038101906103529190612dda565b610c0a565b005b34801561036557600080fd5b5061036e610c6a565b60405161037b91906136d5565b60405180910390f35b34801561039057600080fd5b506103ab60048036038101906103a69190612dda565b610e77565b005b3480156103b957600080fd5b506103d460048036038101906103cf9190612faf565b610e97565b6040516103e1919061366e565b60405180910390f35b3480156103f657600080fd5b50610411600480360381019061040c9190612f6e565b610f49565b005b34801561041f57600080fd5b5061043a60048036038101906104359190612d75565b6110fd565b6040516104479190613a18565b60405180910390f35b34801561045c57600080fd5b5061047760048036038101906104729190612faf565b6111b5565b005b34801561048557600080fd5b5061048e611272565b60405161049b9190613756565b60405180910390f35b3480156104b057600080fd5b506104b9611304565b6040516104c69190613a18565b60405180910390f35b3480156104db57600080fd5b506104f660048036038101906104f19190612ea4565b61130a565b005b34801561050457600080fd5b5061051f600480360381019061051a9190612e29565b611320565b005b34801561052d57600080fd5b5061054860048036038101906105439190612d75565b611382565b6040516105559190613a18565b60405180910390f35b34801561056a57600080fd5b5061058560048036038101906105809190612f6e565b61139a565b005b34801561059357600080fd5b506105ae60048036038101906105a99190612faf565b61154e565b6040516105bb9190613756565b60405180910390f35b3480156105d057600080fd5b506105eb60048036038101906105e69190612faf565b6116a0565b6040516105fb9493929190613a7f565b60405180910390f35b61061e60048036038101906106199190612faf565b611778565b005b34801561062c57600080fd5b5061064760048036038101906106429190612f6e565b611a9a565b6040516106549190613a18565b60405180910390f35b34801561066957600080fd5b50610684600480360381019061067f9190612d9e565b611ae1565b604051610691919061373b565b60405180910390f35b3480156106a657600080fd5b506106af611b75565b6040516106bc91906136f7565b60405180910390f35b60007f80ac58cd000000000000000000000000000000000000000000000000000000007bffffffffffffffffffffffffffffffffffffffffffffffffffffffff1916827bffffffffffffffffffffffffffffffffffffffffffffffffffffffff1916148061079057507f5b5e139f000000000000000000000000000000000000000000000000000000007bffffffffffffffffffffffffffffffffffffffffffffffffffffffff1916827bffffffffffffffffffffffffffffffffffffffffffffffffffffffff1916145b806107a0575061079f82611d82565b5b9050919050565b60606107b2336110fd565b67ffffffffffffffff8111156107f1577f4e487b7100000000000000000000000000000000000000000000000000000000600052604160045260246000fd5b60405190808252806020026020018201604052801561081f5781602001602082028036833780820191505090505b509050600080600754905060005b818110156108f1573373ffffffffffffffffffffffffffffffffffffffff1661086160018361085c9190613c51565b610e97565b73ffffffffffffffffffffffffffffffffffffffff1614156108de5760018161088a9190613c51565b8484815181106108c3577f4e487b7100000000000000000000000000000000000000000000000000000000600052603260045260246000fd5b60200260200101818152505082806108da90613e49565b9350505b80806108e990613e49565b91505061082d565b50505090565b60606000805461090690613de6565b80601f016020809104026020016040519081016040528092919081815260200182805461093290613de6565b801561097f5780601f106109545761010080835404028352916020019161097f565b820191906000526020600020905b81548152906001019060200180831161096257829003601f168201915b5050505050905090565b600061099482611dec565b6109d3576040517f08c379a00000000000000000000000000000000000000000000000000000000081526004016109ca90613918565b60405180910390fd5b6004600083815260200190815260200160002060009054906101000a900473ffffffffffffffffffffffffffffffffffffffff169050919050565b6000610a1982610e97565b90508073ffffffffffffffffffffffffffffffffffffffff168373ffffffffffffffffffffffffffffffffffffffff161415610a8a576040517f08c379a0000000000000000000000000000000000000000000000000000000008152600401610a8190613978565b60405180910390fd5b8073ffffffffffffffffffffffffffffffffffffffff16610aa9611e58565b73ffffffffffffffffffffffffffffffffffffffff161480610ad85750610ad781610ad2611e58565b611ae1565b5b610b17576040517f08c379a0000000000000000000000000000000000000000000000000000000008152600401610b0e90613838565b60405180910390fd5b610b218383611e60565b505050565b600a602052806000526040600020600091509050806000015490806001018054610b4f90613de6565b80601f0160208091040260200160405190810160405280929190818152602001828054610b7b90613de6565b8015610bc85780601f10610b9d57610100808354040283529160200191610bc8565b820191906000526020600020905b815481529060010190602001808311610bab57829003601f168201915b5050505050908060020154908060030160009054906101000a900473ffffffffffffffffffffffffffffffffffffffff16905084565b60085481565b60095481565b610c1b610c15611e58565b82611f19565b610c5a576040517f08c379a0000000000000000000000000000000000000000000000000000000008152600401610c51906139f8565b60405180910390fd5b610c65838383611ff7565b505050565b606060085467ffffffffffffffff811115610cae577f4e487b7100000000000000000000000000000000000000000000000000000000600052604160045260246000fd5b604051908082528060200260200182016040528015610ce757816020015b610cd4612b1d565b815260200190600190039081610ccc5790505b50905060005b8151811015610e7357600a6000600183610d079190613c51565b815260200190815260200160002060405180608001604052908160008201548152602001600182018054610d3a90613de6565b80601f0160208091040260200160405190810160405280929190818152602001828054610d6690613de6565b8015610db35780601f10610d8857610100808354040283529160200191610db3565b820191906000526020600020905b815481529060010190602001808311610d9657829003601f168201915b50505050508152602001600282015481526020016003820160009054906101000a900473ffffffffffffffffffffffffffffffffffffffff1673ffffffffffffffffffffffffffffffffffffffff1673ffffffffffffffffffffffffffffffffffffffff1681525050828281518110610e55577f4e487b7100000000000000000000000000000000000000000000000000000000600052603260045260246000fd5b60200260200101819052508080610e6b90613e49565b915050610ced565b5090565b610e9283838360405180602001604052806000815250611320565b505050565b6000806002600084815260200190815260200160002060009054906101000a900473ffffffffffffffffffffffffffffffffffffffff169050600073ffffffffffffffffffffffffffffffffffffffff168173ffffffffffffffffffffffffffffffffffffffff161415610f40576040517f08c379a0000000000000000000000000000000000000000000000000000000008152600401610f3790613878565b60405180910390fd5b80915050919050565b6000610f54336110fd565b11610f94576040517f08c379a0000000000000000000000000000000000000000000000000000000008152600401610f8b906139d8565b60405180910390fd5b6000815111610fd8576040517f08c379a0000000000000000000000000000000000000000000000000000000008152600401610fcf90613938565b60405180910390fd5b60096000815480929190610feb90613e49565b919050555060405180608001604052806009548152602001828152602001600081526020013373ffffffffffffffffffffffffffffffffffffffff16815250600b60006009548152602001908152602001600020600082015181600001556020820151816001019080519060200190611065929190612b5b565b506040820151816002015560608201518160030160006101000a81548173ffffffffffffffffffffffffffffffffffffffff021916908373ffffffffffffffffffffffffffffffffffffffff1602179055509050507f2d3125e25ce24be39a2fc2ec1b56631236757347a3b5a22261e180f74ac80d69600954826000336040516110f29493929190613a33565b60405180910390a150565b60008073ffffffffffffffffffffffffffffffffffffffff168273ffffffffffffffffffffffffffffffffffffffff16141561116e576040517f08c379a000000000000000000000000000000000000000000000000000000000815260040161116590613858565b60405180910390fd5b600360008373ffffffffffffffffffffffffffffffffffffffff1673ffffffffffffffffffffffffffffffffffffffff168152602001908152602001600020549050919050565b3373ffffffffffffffffffffffffffffffffffffffff166111d582610e97565b73ffffffffffffffffffffffffffffffffffffffff161461122b576040517f08c379a000000000000000000000000000000000000000000000000000000000815260040161122290613998565b60405180910390fd5b80600c60003373ffffffffffffffffffffffffffffffffffffffff1673ffffffffffffffffffffffffffffffffffffffff1681526020019081526020016000208190555050565b60606001805461128190613de6565b80601f01602080910402602001604051908101604052809291908181526020018280546112ad90613de6565b80156112fa5780601f106112cf576101008083540402835291602001916112fa565b820191906000526020600020905b8154815290600101906020018083116112dd57829003601f168201915b5050505050905090565b60075481565b61131c611315611e58565b838361225e565b5050565b61133161132b611e58565b83611f19565b611370576040517f08c379a0000000000000000000000000000000000000000000000000000000008152600401611367906139f8565b60405180910390fd5b61137c848484846123cb565b50505050565b600c6020528060005260406000206000915090505481565b60006113a5336110fd565b116113e5576040517f08c379a00000000000000000000000000000000000000000000000000000000081526004016113dc906139d8565b60405180910390fd5b6000815111611429576040517f08c379a000000000000000000000000000000000000000000000000000000000815260040161142090613938565b60405180910390fd5b6008600081548092919061143c90613e49565b919050555060405180608001604052806008548152602001828152602001600081526020013373ffffffffffffffffffffffffffffffffffffffff16815250600a600060085481526020019081526020016000206000820151816000015560208201518160010190805190602001906114b6929190612b5b565b506040820151816002015560608201518160030160006101000a81548173ffffffffffffffffffffffffffffffffffffffff021916908373ffffffffffffffffffffffffffffffffffffffff1602179055509050507fc66336337a24e513f909b3b25119854dba8385d51307dbc7d31d1b2805e19c7e600854826000336040516115439493929190613a33565b60405180910390a150565b606061155982611dec565b611598576040517f08c379a000000000000000000000000000000000000000000000000000000000815260040161158f906138f8565b60405180910390fd5b60006006600084815260200190815260200160002080546115b890613de6565b80601f01602080910402602001604051908101604052809291908181526020018280546115e490613de6565b80156116315780601f1061160657610100808354040283529160200191611631565b820191906000526020600020905b81548152906001019060200180831161161457829003601f168201915b505050505090506000611642612427565b905060008151141561165857819250505061169b565b60008251111561168d57808260405160200161167592919061364a565b6040516020818303038152906040529250505061169b565b6116968461243e565b925050505b919050565b600b6020528060005260406000206000915090508060000154908060010180546116c990613de6565b80601f01602080910402602001604051908101604052809291908181526020018280546116f590613de6565b80156117425780601f1061171757610100808354040283529160200191611742565b820191906000526020600020905b81548152906001019060200180831161172557829003601f168201915b5050505050908060020154908060030160009054906101000a900473ffffffffffffffffffffffffffffffffffffffff16905084565b60008111801561178a57506008548111155b6117c9576040517f08c379a00000000000000000000000000000000000000000000000000000000081526004016117c0906138b8565b60405180910390fd5b6000600a60008381526020019081526020016000206040518060800160405290816000820154815260200160018201805461180390613de6565b80601f016020809104026020016040519081016040528092919081815260200182805461182f90613de6565b801561187c5780601f106118515761010080835404028352916020019161187c565b820191906000526020600020905b81548152906001019060200180831161185f57829003601f168201915b50505050508152602001600282015481526020016003820160009054906101000a900473ffffffffffffffffffffffffffffffffffffffff1673ffffffffffffffffffffffffffffffffffffffff1673ffffffffffffffffffffffffffffffffffffffff168152505090503373ffffffffffffffffffffffffffffffffffffffff16816060015173ffffffffffffffffffffffffffffffffffffffff16141561195a576040517f08c379a0000000000000000000000000000000000000000000000000000000008152600401611951906139b8565b60405180910390fd5b806060015173ffffffffffffffffffffffffffffffffffffffff166108fc349081150290604051600060405180830381858888f193505050501580156119a4573d6000803e3d6000fd5b5034816040018181516119b79190613c51565b9150818152505080600a60008481526020019081526020016000206000820151816000015560208201518160010190805190602001906119f8929190612b5b565b506040820151816002015560608201518160030160006101000a81548173ffffffffffffffffffffffffffffffffffffffff021916908373ffffffffffffffffffffffffffffffffffffffff1602179055509050507f20988fe475351e75813672abada1dddb7ac67cbbeb81e61e1160b8329d8cdf1c82826020015183604001518460600151604051611a8e9493929190613a7f565b60405180910390a15050565b600060076000815480929190611aaf90613e49565b9190505550611ac0336007546124e5565b611acc60075483612503565b611ad76007546111b5565b6007549050919050565b6000600560008473ffffffffffffffffffffffffffffffffffffffff1673ffffffffffffffffffffffffffffffffffffffff16815260200190815260200160002060008373ffffffffffffffffffffffffffffffffffffffff1673ffffffffffffffffffffffffffffffffffffffff16815260200190815260200160002060009054906101000a900460ff16905092915050565b606060095467ffffffffffffffff811115611bb9577f4e487b7100000000000000000000000000000000000000000000000000000000600052604160045260246000fd5b604051908082528060200260200182016040528015611bf257816020015b611bdf612be1565b815260200190600190039081611bd75790505b50905060005b8151811015611d7e57600b6000600183611c129190613c51565b815260200190815260200160002060405180608001604052908160008201548152602001600182018054611c4590613de6565b80601f0160208091040260200160405190810160405280929190818152602001828054611c7190613de6565b8015611cbe5780601f10611c9357610100808354040283529160200191611cbe565b820191906000526020600020905b815481529060010190602001808311611ca157829003601f168201915b50505050508152602001600282015481526020016003820160009054906101000a900473ffffffffffffffffffffffffffffffffffffffff1673ffffffffffffffffffffffffffffffffffffffff1673ffffffffffffffffffffffffffffffffffffffff1681525050828281518110611d60577f4e487b7100000000000000000000000000000000000000000000000000000000600052603260045260246000fd5b60200260200101819052508080611d7690613e49565b915050611bf8565b5090565b60007f01ffc9a7000000000000000000000000000000000000000000000000000000007bffffffffffffffffffffffffffffffffffffffffffffffffffffffff1916827bffffffffffffffffffffffffffffffffffffffffffffffffffffffff1916149050919050565b60008073ffffffffffffffffffffffffffffffffffffffff166002600084815260200190815260200160002060009054906101000a900473ffffffffffffffffffffffffffffffffffffffff1673ffffffffffffffffffffffffffffffffffffffff1614159050919050565b600033905090565b816004600083815260200190815260200160002060006101000a81548173ffffffffffffffffffffffffffffffffffffffff021916908373ffffffffffffffffffffffffffffffffffffffff160217905550808273ffffffffffffffffffffffffffffffffffffffff16611ed383610e97565b73ffffffffffffffffffffffffffffffffffffffff167f8c5be1e5ebec7d5bd14f71427d1e84f3dd0314c0f7b2291e5b200ac8c7c3b92560405160405180910390a45050565b6000611f2482611dec565b611f63576040517f08c379a0000000000000000000000000000000000000000000000000000000008152600401611f5a90613818565b60405180910390fd5b6000611f6e83610e97565b90508073ffffffffffffffffffffffffffffffffffffffff168473ffffffffffffffffffffffffffffffffffffffff161480611fdd57508373ffffffffffffffffffffffffffffffffffffffff16611fc584610989565b73ffffffffffffffffffffffffffffffffffffffff16145b80611fee5750611fed8185611ae1565b5b91505092915050565b8273ffffffffffffffffffffffffffffffffffffffff1661201782610e97565b73ffffffffffffffffffffffffffffffffffffffff161461206d576040517f08c379a000000000000000000000000000000000000000000000000000000000815260040161206490613798565b60405180910390fd5b600073ffffffffffffffffffffffffffffffffffffffff168273ffffffffffffffffffffffffffffffffffffffff1614156120dd576040517f08c379a00000000000000000000000000000000000000000000000000000000081526004016120d4906137d8565b60405180910390fd5b6120e8838383612577565b6120f3600082611e60565b6001600360008573ffffffffffffffffffffffffffffffffffffffff1673ffffffffffffffffffffffffffffffffffffffff16815260200190815260200160002060008282546121439190613cd8565b925050819055506001600360008473ffffffffffffffffffffffffffffffffffffffff1673ffffffffffffffffffffffffffffffffffffffff168152602001908152602001600020600082825461219a9190613c51565b92505081905550816002600083815260200190815260200160002060006101000a81548173ffffffffffffffffffffffffffffffffffffffff021916908373ffffffffffffffffffffffffffffffffffffffff160217905550808273ffffffffffffffffffffffffffffffffffffffff168473ffffffffffffffffffffffffffffffffffffffff167fddf252ad1be2c89b69c2b068fc378daa952ba7f163c4a11628f55a4df523b3ef60405160405180910390a461225983838361257c565b505050565b8173ffffffffffffffffffffffffffffffffffffffff168373ffffffffffffffffffffffffffffffffffffffff1614156122cd576040517f08c379a00000000000000000000000000000000000000000000000000000000081526004016122c4906137f8565b60405180910390fd5b80600560008573ffffffffffffffffffffffffffffffffffffffff1673ffffffffffffffffffffffffffffffffffffffff16815260200190815260200160002060008473ffffffffffffffffffffffffffffffffffffffff1673ffffffffffffffffffffffffffffffffffffffff16815260200190815260200160002060006101000a81548160ff0219169083151502179055508173ffffffffffffffffffffffffffffffffffffffff168373ffffffffffffffffffffffffffffffffffffffff167f17307eab39ab6107e8899845ad3d59bd9653f200f220920489ca2b5937696c31836040516123be919061373b565b60405180910390a3505050565b6123d6848484611ff7565b6123e284848484612581565b612421576040517f08c379a000000000000000000000000000000000000000000000000000000000815260040161241890613778565b60405180910390fd5b50505050565b606060405180602001604052806000815250905090565b606061244982611dec565b612488576040517f08c379a000000000000000000000000000000000000000000000000000000000815260040161247f90613958565b60405180910390fd5b6000612492612427565b905060008151116124b257604051806020016040528060008152506124dd565b806124bc84612718565b6040516020016124cd92919061364a565b6040516020818303038152906040525b915050919050565b6124ff8282604051806020016040528060008152506128c5565b5050565b61250c82611dec565b61254b576040517f08c379a000000000000000000000000000000000000000000000000000000000815260040161254290613898565b60405180910390fd5b80600660008481526020019081526020016000209080519060200190612572929190612b5b565b505050565b505050565b505050565b60006125a28473ffffffffffffffffffffffffffffffffffffffff16612920565b1561270b578373ffffffffffffffffffffffffffffffffffffffff1663150b7a026125cb611e58565b8786866040518563ffffffff1660e01b81526004016125ed9493929190613689565b602060405180830381600087803b15801561260757600080fd5b505af192505050801561263857506040513d601f19601f820116820180604052508101906126359190612f45565b60015b6126bb573d8060008114612668576040519150601f19603f3d011682016040523d82523d6000602084013e61266d565b606091505b506000815114156126b3576040517f08c379a00000000000000000000000000000000000000000000000000000000081526004016126aa90613778565b60405180910390fd5b805181602001fd5b63150b7a0260e01b7bffffffffffffffffffffffffffffffffffffffffffffffffffffffff1916817bffffffffffffffffffffffffffffffffffffffffffffffffffffffff191614915050612710565b600190505b949350505050565b60606000821415612760576040518060400160405280600181526020017f300000000000000000000000000000000000000000000000000000000000000081525090506128c0565b600082905060005b6000821461279257808061277b90613e49565b915050600a8261278b9190613ca7565b9150612768565b60008167ffffffffffffffff8111156127d4577f4e487b7100000000000000000000000000000000000000000000000000000000600052604160045260246000fd5b6040519080825280601f01601f1916602001820160405280156128065781602001600182028036833780820191505090505b5090505b600085146128b95760018261281f9190613cd8565b9150600a8561282e9190613e92565b603061283a9190613c51565b60f81b818381518110612876577f4e487b7100000000000000000000000000000000000000000000000000000000600052603260045260246000fd5b60200101907effffffffffffffffffffffffffffffffffffffffffffffffffffffffffffff1916908160001a905350600a856128b29190613ca7565b945061280a565b8093505050505b919050565b6128cf8383612943565b6128dc6000848484612581565b61291b576040517f08c379a000000000000000000000000000000000000000000000000000000000815260040161291290613778565b60405180910390fd5b505050565b6000808273ffffffffffffffffffffffffffffffffffffffff163b119050919050565b600073ffffffffffffffffffffffffffffffffffffffff168273ffffffffffffffffffffffffffffffffffffffff1614156129b3576040517f08c379a00000000000000000000000000000000000000000000000000000000081526004016129aa906138d8565b60405180910390fd5b6129bc81611dec565b156129fc576040517f08c379a00000000000000000000000000000000000000000000000000000000081526004016129f3906137b8565b60405180910390fd5b612a0860008383612577565b6001600360008473ffffffffffffffffffffffffffffffffffffffff1673ffffffffffffffffffffffffffffffffffffffff1681526020019081526020016000206000828254612a589190613c51565b92505081905550816002600083815260200190815260200160002060006101000a81548173ffffffffffffffffffffffffffffffffffffffff021916908373ffffffffffffffffffffffffffffffffffffffff160217905550808273ffffffffffffffffffffffffffffffffffffffff16600073ffffffffffffffffffffffffffffffffffffffff167fddf252ad1be2c89b69c2b068fc378daa952ba7f163c4a11628f55a4df523b3ef60405160405180910390a4612b196000838361257c565b5050565b6040518060800160405280600081526020016060815260200160008152602001600073ffffffffffffffffffffffffffffffffffffffff1681525090565b828054612b6790613de6565b90600052602060002090601f016020900481019282612b895760008555612bd0565b82601f10612ba257805160ff1916838001178555612bd0565b82800160010185558215612bd0579182015b82811115612bcf578251825591602001919060010190612bb4565b5b509050612bdd9190612c1f565b5090565b6040518060800160405280600081526020016060815260200160008152602001600073ffffffffffffffffffffffffffffffffffffffff1681525090565b5b80821115612c38576000816000905550600101612c20565b5090565b6000612c4f612c4a84613af0565b613acb565b905082815260208101848484011115612c6757600080fd5b612c72848285613da4565b509392505050565b6000612c8d612c8884613b21565b613acb565b905082815260208101848484011115612ca557600080fd5b612cb0848285613da4565b509392505050565b600081359050612cc781614527565b92915050565b600081359050612cdc8161453e565b92915050565b600081359050612cf181614555565b92915050565b600081519050612d0681614555565b92915050565b600082601f830112612d1d57600080fd5b8135612d2d848260208601612c3c565b91505092915050565b600082601f830112612d4757600080fd5b8135612d57848260208601612c7a565b91505092915050565b600081359050612d6f8161456c565b92915050565b600060208284031215612d8757600080fd5b6000612d9584828501612cb8565b91505092915050565b60008060408385031215612db157600080fd5b6000612dbf85828601612cb8565b9250506020612dd085828601612cb8565b9150509250929050565b600080600060608486031215612def57600080fd5b6000612dfd86828701612cb8565b9350506020612e0e86828701612cb8565b9250506040612e1f86828701612d60565b9150509250925092565b60008060008060808587031215612e3f57600080fd5b6000612e4d87828801612cb8565b9450506020612e5e87828801612cb8565b9350506040612e6f87828801612d60565b925050606085013567ffffffffffffffff811115612e8c57600080fd5b612e9887828801612d0c565b91505092959194509250565b60008060408385031215612eb757600080fd5b6000612ec585828601612cb8565b9250506020612ed685828601612ccd565b9150509250929050565b60008060408385031215612ef357600080fd5b6000612f0185828601612cb8565b9250506020612f1285828601612d60565b9150509250929050565b600060208284031215612f2e57600080fd5b6000612f3c84828501612ce2565b91505092915050565b600060208284031215612f5757600080fd5b6000612f6584828501612cf7565b91505092915050565b600060208284031215612f8057600080fd5b600082013567ffffffffffffffff811115612f9a57600080fd5b612fa684828501612d36565b91505092915050565b600060208284031215612fc157600080fd5b6000612fcf84828501612d60565b91505092915050565b6000612fe48383613566565b905092915050565b6000612ff883836135c9565b905092915050565b600061300c838361362c565b60208301905092915050565b61302181613d1e565b82525050565b61303081613d1e565b82525050565b61303f81613d0c565b82525050565b600061305082613b82565b61305a8185613be0565b93508360208202850161306c85613b52565b8060005b858110156130a857848403895281516130898582612fd8565b945061309483613bb9565b925060208a01995050600181019050613070565b50829750879550505050505092915050565b60006130c582613b8d565b6130cf8185613bf1565b9350836020820285016130e185613b62565b8060005b8581101561311d57848403895281516130fe8582612fec565b945061310983613bc6565b925060208a019950506001810190506130e5565b50829750879550505050505092915050565b600061313a82613b98565b6131448185613c02565b935061314f83613b72565b8060005b838110156131805781516131678882613000565b975061317283613bd3565b925050600181019050613153565b5085935050505092915050565b61319681613d30565b82525050565b60006131a782613ba3565b6131b18185613c13565b93506131c1818560208601613db3565b6131ca81613f7f565b840191505092915050565b6131de81613d92565b82525050565b60006131ef82613bae565b6131f98185613c24565b9350613209818560208601613db3565b61321281613f7f565b840191505092915050565b600061322882613bae565b6132328185613c35565b9350613242818560208601613db3565b61324b81613f7f565b840191505092915050565b600061326182613bae565b61326b8185613c46565b935061327b818560208601613db3565b80840191505092915050565b6000613294603283613c35565b915061329f82613f90565b604082019050919050565b60006132b7602583613c35565b91506132c282613fdf565b604082019050919050565b60006132da601c83613c35565b91506132e58261402e565b602082019050919050565b60006132fd602483613c35565b915061330882614057565b604082019050919050565b6000613320601983613c35565b915061332b826140a6565b602082019050919050565b6000613343602c83613c35565b915061334e826140cf565b604082019050919050565b6000613366603883613c35565b91506133718261411e565b604082019050919050565b6000613389602a83613c35565b91506133948261416d565b604082019050919050565b60006133ac602983613c35565b91506133b7826141bc565b604082019050919050565b60006133cf602e83613c35565b91506133da8261420b565b604082019050919050565b60006133f2600f83613c35565b91506133fd8261425a565b602082019050919050565b6000613415602083613c35565b915061342082614283565b602082019050919050565b6000613438603183613c35565b9150613443826142ac565b604082019050919050565b600061345b602c83613c35565b9150613466826142fb565b604082019050919050565b600061347e601983613c35565b91506134898261434a565b602082019050919050565b60006134a1602f83613c35565b91506134ac82614373565b604082019050919050565b60006134c4602183613c35565b91506134cf826143c2565b604082019050919050565b60006134e7603383613c35565b91506134f282614411565b604082019050919050565b600061350a601883613c35565b915061351582614460565b602082019050919050565b600061352d602683613c35565b915061353882614489565b604082019050919050565b6000613550603183613c35565b915061355b826144d8565b604082019050919050565b600060808301600083015161357e600086018261362c565b506020830151848203602086015261359682826131e4565b91505060408301516135ab604086018261362c565b5060608301516135be6060860182613018565b508091505092915050565b60006080830160008301516135e1600086018261362c565b50602083015184820360208601526135f982826131e4565b915050604083015161360e604086018261362c565b5060608301516136216060860182613018565b508091505092915050565b61363581613d88565b82525050565b61364481613d88565b82525050565b60006136568285613256565b91506136628284613256565b91508190509392505050565b60006020820190506136836000830184613036565b92915050565b600060808201905061369e6000830187613036565b6136ab6020830186613036565b6136b8604083018561363b565b81810360608301526136ca818461319c565b905095945050505050565b600060208201905081810360008301526136ef8184613045565b905092915050565b6000602082019050818103600083015261371181846130ba565b905092915050565b60006020820190508181036000830152613733818461312f565b905092915050565b6000602082019050613750600083018461318d565b92915050565b60006020820190508181036000830152613770818461321d565b905092915050565b6000602082019050818103600083015261379181613287565b9050919050565b600060208201905081810360008301526137b1816132aa565b9050919050565b600060208201905081810360008301526137d1816132cd565b9050919050565b600060208201905081810360008301526137f1816132f0565b9050919050565b6000602082019050818103600083015261381181613313565b9050919050565b6000602082019050818103600083015261383181613336565b9050919050565b6000602082019050818103600083015261385181613359565b9050919050565b600060208201905081810360008301526138718161337c565b9050919050565b600060208201905081810360008301526138918161339f565b9050919050565b600060208201905081810360008301526138b1816133c2565b9050919050565b600060208201905081810360008301526138d1816133e5565b9050919050565b600060208201905081810360008301526138f181613408565b9050919050565b600060208201905081810360008301526139118161342b565b9050919050565b600060208201905081810360008301526139318161344e565b9050919050565b6000602082019050818103600083015261395181613471565b9050919050565b6000602082019050818103600083015261397181613494565b9050919050565b60006020820190508181036000830152613991816134b7565b9050919050565b600060208201905081810360008301526139b1816134da565b9050919050565b600060208201905081810360008301526139d1816134fd565b9050919050565b600060208201905081810360008301526139f181613520565b9050919050565b60006020820190508181036000830152613a1181613543565b9050919050565b6000602082019050613a2d600083018461363b565b92915050565b6000608082019050613a48600083018761363b565b8181036020830152613a5a818661321d565b9050613a6960408301856131d5565b613a766060830184613027565b95945050505050565b6000608082019050613a94600083018761363b565b8181036020830152613aa6818661321d565b9050613ab5604083018561363b565b613ac26060830184613027565b95945050505050565b6000613ad5613ae6565b9050613ae18282613e18565b919050565b6000604051905090565b600067ffffffffffffffff821115613b0b57613b0a613f50565b5b613b1482613f7f565b9050602081019050919050565b600067ffffffffffffffff821115613b3c57613b3b613f50565b5b613b4582613f7f565b9050602081019050919050565b6000819050602082019050919050565b6000819050602082019050919050565b6000819050602082019050919050565b600081519050919050565b600081519050919050565b600081519050919050565b600081519050919050565b600081519050919050565b6000602082019050919050565b6000602082019050919050565b6000602082019050919050565b600082825260208201905092915050565b600082825260208201905092915050565b600082825260208201905092915050565b600082825260208201905092915050565b600082825260208201905092915050565b600082825260208201905092915050565b600081905092915050565b6000613c5c82613d88565b9150613c6783613d88565b9250827fffffffffffffffffffffffffffffffffffffffffffffffffffffffffffffffff03821115613c9c57613c9b613ec3565b5b828201905092915050565b6000613cb282613d88565b9150613cbd83613d88565b925082613ccd57613ccc613ef2565b5b828204905092915050565b6000613ce382613d88565b9150613cee83613d88565b925082821015613d0157613d00613ec3565b5b828203905092915050565b6000613d1782613d68565b9050919050565b6000613d2982613d68565b9050919050565b60008115159050919050565b60007fffffffff0000000000000000000000000000000000000000000000000000000082169050919050565b600073ffffffffffffffffffffffffffffffffffffffff82169050919050565b6000819050919050565b6000613d9d82613d88565b9050919050565b82818337600083830152505050565b60005b83811015613dd1578082015181840152602081019050613db6565b83811115613de0576000848401525b50505050565b60006002820490506001821680613dfe57607f821691505b60208210811415613e1257613e11613f21565b5b50919050565b613e2182613f7f565b810181811067ffffffffffffffff82111715613e4057613e3f613f50565b5b80604052505050565b6000613e5482613d88565b91507fffffffffffffffffffffffffffffffffffffffffffffffffffffffffffffffff821415613e8757613e86613ec3565b5b600182019050919050565b6000613e9d82613d88565b9150613ea883613d88565b925082613eb857613eb7613ef2565b5b828206905092915050565b7f4e487b7100000000000000000000000000000000000000000000000000000000600052601160045260246000fd5b7f4e487b7100000000000000000000000000000000000000000000000000000000600052601260045260246000fd5b7f4e487b7100000000000000000000000000000000000000000000000000000000600052602260045260246000fd5b7f4e487b7100000000000000000000000000000000000000000000000000000000600052604160045260246000fd5b6000601f19601f8301169050919050565b7f4552433732313a207472616e7366657220746f206e6f6e20455243373231526560008201527f63656976657220696d706c656d656e7465720000000000000000000000000000602082015250565b7f4552433732313a207472616e736665722066726f6d20696e636f72726563742060008201527f6f776e6572000000000000000000000000000000000000000000000000000000602082015250565b7f4552433732313a20746f6b656e20616c7265616479206d696e74656400000000600082015250565b7f4552433732313a207472616e7366657220746f20746865207a65726f2061646460008201527f7265737300000000000000000000000000000000000000000000000000000000602082015250565b7f4552433732313a20617070726f766520746f2063616c6c657200000000000000600082015250565b7f4552433732313a206f70657261746f7220717565727920666f72206e6f6e657860008201527f697374656e7420746f6b656e0000000000000000000000000000000000000000602082015250565b7f4552433732313a20617070726f76652063616c6c6572206973206e6f74206f7760008201527f6e6572206e6f7220617070726f76656420666f7220616c6c0000000000000000602082015250565b7f4552433732313a2062616c616e636520717565727920666f7220746865207a6560008201527f726f206164647265737300000000000000000000000000000000000000000000602082015250565b7f4552433732313a206f776e657220717565727920666f72206e6f6e657869737460008201527f656e7420746f6b656e0000000000000000000000000000000000000000000000602082015250565b7f45524337323155524953746f726167653a2055524920736574206f66206e6f6e60008201527f6578697374656e7420746f6b656e000000000000000000000000000000000000602082015250565b7f496e76616c696420706f73742069640000000000000000000000000000000000600082015250565b7f4552433732313a206d696e7420746f20746865207a65726f2061646472657373600082015250565b7f45524337323155524953746f726167653a2055524920717565727920666f722060008201527f6e6f6e6578697374656e7420746f6b656e000000000000000000000000000000602082015250565b7f4552433732313a20617070726f76656420717565727920666f72206e6f6e657860008201527f697374656e7420746f6b656e0000000000000000000000000000000000000000602082015250565b7f43616e6e6f74207061737320616e20656d707479206861736800000000000000600082015250565b7f4552433732314d657461646174613a2055524920717565727920666f72206e6f60008201527f6e6578697374656e7420746f6b656e0000000000000000000000000000000000602082015250565b7f4552433732313a20617070726f76616c20746f2063757272656e74206f776e6560008201527f7200000000000000000000000000000000000000000000000000000000000000602082015250565b7f4d757374206f776e20746865206e667420796f752077616e7420746f2073656c60008201527f65637420617320796f75722070726f66696c6500000000000000000000000000602082015250565b7f43616e6e6f742074697020796f7572206f776e20706f73740000000000000000600082015250565b7f4d757374206f776e206120646563656e74726174776974746572206e6674207460008201527f6f20706f73740000000000000000000000000000000000000000000000000000602082015250565b7f4552433732313a207472616e736665722063616c6c6572206973206e6f74206f60008201527f776e6572206e6f7220617070726f766564000000000000000000000000000000602082015250565b61453081613d0c565b811461453b57600080fd5b50565b61454781613d30565b811461455257600080fd5b50565b61455e81613d3c565b811461456957600080fd5b50565b61457581613d88565b811461458057600080fd5b5056fea26469706673582212206b806c571f976ee0694d56e2c952dc776be290ee9deaa2a3027c2366b68afc7564736f6c63430008040033",
  "linkReferences": {},
  "deployedLinkReferences": {}
}