{
  "_format": "hh-sol-artifact-1",
  "contractName": "Decentratwitter",
  "sourceName": "contracts/Decentratwitter.sol",
  "abi": [
    {
      "inputs": [],
      "stateMutability": "nonpayable",
      "type": "constructor"
    },
    {
      "anonymous": false,
      "inputs": [
        {
          "indexed": true,
          "internalType": "address",
          "name": "owner",
          "type": "address"
        },
        {
          "indexed": true,
          "internalType": "address",
          "name": "approved",
          "type": "address"
        },
        {
          "indexed": true,
          "internalType": "uint256",
          "name": "tokenId",
          "type": "uint256"
        }
      ],
      "name": "Approval",
      "type": "event"
    },
    {
      "anonymous": false,
      "inputs": [
        {
          "indexed": true,
          "internalType": "address",
          "name": "owner",
          "type": "address"
        },
        {
          "indexed": true,
          "internalType": "address",
          "name": "operator",
          "type": "address"
        },
        {
          "indexed": false,
          "internalType": "bool",
          "name": "approved",
          "type": "bool"
        }
      ],
      "name": "ApprovalForAll",
      "type": "event"
    },
    {
      "anonymous": false,
      "inputs": [
        {
          "indexed": false,
          "internalType": "uint256",
          "name": "id",
          "type": "uint256"
        },
        {
          "indexed": false,
          "internalType": "string",
          "name": "hash",
          "type": "string"
        },
        {
          "indexed": false,
          "internalType": "uint256",
          "name": "tipAmount",
          "type": "uint256"
        },
        {
          "indexed": false,
          "internalType": "address payable",
          "name": "author",
          "type": "address"
        }
      ],
      "name": "PostCreated",
      "type": "event"
    },
    {
      "anonymous": false,
      "inputs": [
        {
          "indexed": false,
          "internalType": "uint256",
          "name": "id",
          "type": "uint256"
        },
        {
          "indexed": false,
          "internalType": "string",
          "name": "hash",
          "type": "string"
        },
        {
          "indexed": false,
          "internalType": "uint256",
          "name": "tipAmount",
          "type": "uint256"
        },
        {
          "indexed": false,
          "internalType": "address payable",
          "name": "author",
          "type": "address"
        }
      ],
      "name": "PostTipped",
      "type": "event"
    },
    {
      "anonymous": false,
      "inputs": [
        {
          "indexed": false,
          "internalType": "uint256",
          "name": "id",
          "type": "uint256"
        },
        {
          "indexed": false,
          "internalType": "string",
          "name": "hash",
          "type": "string"
        },
        {
          "indexed": false,
          "internalType": "uint256",
          "name": "tipAmount",
          "type": "uint256"
        },
        {
          "indexed": false,
          "internalType": "address payable",
          "name": "author",
          "type": "address"
        }
      ],
      "name": "ReportCreated",
      "type": "event"
    },
    {
      "anonymous": false,
      "inputs": [
        {
          "indexed": true,
          "internalType": "address",
          "name": "from",
          "type": "address"
        },
        {
          "indexed": true,
          "internalType": "address",
          "name": "to",
          "type": "address"
        },
        {
          "indexed": true,
          "internalType": "uint256",
          "name": "tokenId",
          "type": "uint256"
        }
      ],
      "name": "Transfer",
      "type": "event"
    },
    {
      "inputs": [
        {
          "internalType": "address",
          "name": "to",
          "type": "address"
        },
        {
          "internalType": "uint256",
          "name": "tokenId",
          "type": "uint256"
        }
      ],
      "name": "approve",
      "outputs": [],
      "stateMutability": "nonpayable",
      "type": "function"
    },
    {
      "inputs": [
        {
          "internalType": "address",
          "name": "owner",
          "type": "address"
        }
      ],
      "name": "balanceOf",
      "outputs": [
        {
          "internalType": "uint256",
          "name": "",
          "type": "uint256"
        }
      ],
      "stateMutability": "view",
      "type": "function"
    },
    {
      "inputs": [],
      "name": "getAllPosts",
      "outputs": [
        {
          "components": [
            {
              "internalType": "uint256",
              "name": "id",
              "type": "uint256"
            },
            {
              "internalType": "string",
              "name": "hash",
              "type": "string"
            },
            {
              "internalType": "uint256",
              "name": "tipAmount",
              "type": "uint256"
            },
            {
              "internalType": "address payable",
              "name": "author",
              "type": "address"
            }
          ],
          "internalType": "struct Decentratwitter.Post[]",
          "name": "_posts",
          "type": "tuple[]"
        }
      ],
      "stateMutability": "view",
      "type": "function"
    },
    {
      "inputs": [],
      "name": "getAllReports",
      "outputs": [
        {
          "components": [
            {
              "internalType": "uint256",
              "name": "id",
              "type": "uint256"
            },
            {
              "internalType": "string",
              "name": "hash",
              "type": "string"
            },
            {
              "internalType": "uint256",
              "name": "tipAmount",
              "type": "uint256"
            },
            {
              "internalType": "address payable",
              "name": "author",
              "type": "address"
            }
          ],
          "internalType": "struct Decentratwitter.Report[]",
          "name": "_reports",
          "type": "tuple[]"
        }
      ],
      "stateMutability": "view",
      "type": "function"
    },
    {
      "inputs": [
        {
          "internalType": "uint256",
          "name": "tokenId",
          "type": "uint256"
        }
      ],
      "name": "getApproved",
      "outputs": [
        {
          "internalType": "address",
          "name": "",
          "type": "address"
        }
      ],
      "stateMutability": "view",
      "type": "function"
    },
    {
      "inputs": [],
      "name": "getMyNfts",
      "outputs": [
        {
          "internalType": "uint256[]",
          "name": "_ids",
          "type": "uint256[]"
        }
      ],
      "stateMutability": "view",
      "type": "function"
    },
    {
      "inputs": [
        {
          "internalType": "address",
          "name": "owner",
          "type": "address"
        },
        {
          "internalType": "address",
          "name": "operator",
          "type": "address"
        }
      ],
      "name": "isApprovedForAll",
      "outputs": [
        {
          "internalType": "bool",
          "name": "",
          "type": "bool"
        }
      ],
      "stateMutability": "view",
      "type": "function"
    },
    {
      "inputs": [
        {
          "internalType": "string",
          "name": "_tokenURI",
          "type": "string"
        }
      ],
      "name": "mint",
      "outputs": [
        {
          "internalType": "uint256",
          "name": "",
          "type": "uint256"
        }
      ],
      "stateMutability": "nonpayable",
      "type": "function"
    },
    {
      "inputs": [],
      "name": "name",
      "outputs": [
        {
          "internalType": "string",
          "name": "",
          "type": "string"
        }
      ],
      "stateMutability": "view",
      "type": "function"
    },
    {
      "inputs": [
        {
          "internalType": "uint256",
          "name": "tokenId",
          "type": "uint256"
        }
      ],
      "name": "ownerOf",
      "outputs": [
        {
          "internalType": "address",
          "name": "",
          "type": "address"
        }
      ],
      "stateMutability": "view",
      "type": "function"
    },
    {
      "inputs": [
        {
          "internalType": "uint256",
          "name": "_postId",
          "type": "uint256"
        },
        {
          "internalType": "string",
          "name": "_commentContent",
          "type": "string"
        },
        {
          "internalType": "address",
          "name": "_commentAuthor",
          "type": "address"
        }
      ],
      "name": "postComment",
      "outputs": [],
      "stateMutability": "nonpayable",
      "type": "function"
    },
    {
      "inputs": [],
      "name": "postCount",
      "outputs": [
        {
          "internalType": "uint256",
          "name": "",
          "type": "uint256"
        }
      ],
      "stateMutability": "view",
      "type": "function"
    },
    {
      "inputs": [
        {
          "internalType": "uint256",
          "name": "",
          "type": "uint256"
        }
      ],
      "name": "posts",
      "outputs": [
        {
          "internalType": "uint256",
          "name": "id",
          "type": "uint256"
        },
        {
          "internalType": "string",
          "name": "hash",
          "type": "string"
        },
        {
          "internalType": "uint256",
          "name": "tipAmount",
          "type": "uint256"
        },
        {
          "internalType": "address payable",
          "name": "author",
          "type": "address"
        }
      ],
      "stateMutability": "view",
      "type": "function"
    },
    {
      "inputs": [
        {
          "internalType": "address",
          "name": "",
          "type": "address"
        }
      ],
      "name": "profiles",
      "outputs": [
        {
          "internalType": "uint256",
          "name": "",
          "type": "uint256"
        }
      ],
      "stateMutability": "view",
      "type": "function"
    },
    {
      "inputs": [],
      "name": "reportCount",
      "outputs": [
        {
          "internalType": "uint256",
          "name": "",
          "type": "uint256"
        }
      ],
      "stateMutability": "view",
      "type": "function"
    },
    {
      "inputs": [
        {
          "internalType": "uint256",
          "name": "",
          "type": "uint256"
        }
      ],
      "name": "reports",
      "outputs": [
        {
          "internalType": "uint256",
          "name": "id",
          "type": "uint256"
        },
        {
          "internalType": "string",
          "name": "hash",
          "type": "string"
        },
        {
          "internalType": "uint256",
          "name": "tipAmount",
          "type": "uint256"
        },
        {
          "internalType": "address payable",
          "name": "author",
          "type": "address"
        }
      ],
      "stateMutability": "view",
      "type": "function"
    },
    {
      "inputs": [
        {
          "internalType": "address",
          "name": "from",
          "type": "address"
        },
        {
          "internalType": "address",
          "name": "to",
          "type": "address"
        },
        {
          "internalType": "uint256",
          "name": "tokenId",
          "type": "uint256"
        }
      ],
      "name": "safeTransferFrom",
      "outputs": [],
      "stateMutability": "nonpayable",
      "type": "function"
    },
    {
      "inputs": [
        {
          "internalType": "address",
          "name": "from",
          "type": "address"
        },
        {
          "internalType": "address",
          "name": "to",
          "type": "address"
        },
        {
          "internalType": "uint256",
          "name": "tokenId",
          "type": "uint256"
        },
        {
          "internalType": "bytes",
          "name": "_data",
          "type": "bytes"
        }
      ],
      "name": "safeTransferFrom",
      "outputs": [],
      "stateMutability": "nonpayable",
      "type": "function"
    },
    {
      "inputs": [
        {
          "internalType": "address",
          "name": "operator",
          "type": "address"
        },
        {
          "internalType": "bool",
          "name": "approved",
          "type": "bool"
        }
      ],
      "name": "setApprovalForAll",
      "outputs": [],
      "stateMutability": "nonpayable",
      "type": "function"
    },
    {
      "inputs": [
        {
          "internalType": "uint256",
          "name": "_id",
          "type": "uint256"
        }
      ],
      "name": "setProfile",
      "outputs": [],
      "stateMutability": "nonpayable",
      "type": "function"
    },
    {
      "inputs": [
        {
          "internalType": "bytes4",
          "name": "interfaceId",
          "type": "bytes4"
        }
      ],
      "name": "supportsInterface",
      "outputs": [
        {
          "internalType": "bool",
          "name": "",
          "type": "bool"
        }
      ],
      "stateMutability": "view",
      "type": "function"
    },
    {
      "inputs": [],
      "name": "symbol",
      "outputs": [
        {
          "internalType": "string",
          "name": "",
          "type": "string"
        }
      ],
      "stateMutability": "view",
      "type": "function"
    },
    {
      "inputs": [
        {
          "internalType": "uint256",
          "name": "_id",
          "type": "uint256"
        }
      ],
      "name": "tipPostOwner",
      "outputs": [],
      "stateMutability": "payable",
      "type": "function"
    },
    {
      "inputs": [],
      "name": "tokenCount",
      "outputs": [
        {
          "internalType": "uint256",
          "name": "",
          "type": "uint256"
        }
      ],
      "stateMutability": "view",
      "type": "function"
    },
    {
      "inputs": [
        {
          "internalType": "uint256",
          "name": "tokenId",
          "type": "uint256"
        }
      ],
      "name": "tokenURI",
      "outputs": [
        {
          "internalType": "string",
          "name": "",
          "type": "string"
        }
      ],
      "stateMutability": "view",
      "type": "function"
    },
    {
      "inputs": [
        {
          "internalType": "address",
          "name": "from",
          "type": "address"
        },
        {
          "internalType": "address",
          "name": "to",
          "type": "address"
        },
        {
          "internalType": "uint256",
          "name": "tokenId",
          "type": "uint256"
        }
      ],
      "name": "transferFrom",
      "outputs": [],
      "stateMutability": "nonpayable",
      "type": "function"
    },
    {
      "inputs": [
        {
          "internalType": "string",
          "name": "_postHash",
          "type": "string"
        }
      ],
      "name": "uploadPost",
      "outputs": [],
      "stateMutability": "nonpayable",
      "type": "function"
    },
    {
      "inputs": [
        {
          "internalType": "string",
          "name": "_reportHash",
          "type": "string"
        }
      ],
      "name": "uploadReport",
      "outputs": [],
      "stateMutability": "nonpayable",
      "type": "function"
    },
    {
      "inputs": [
        {
          "internalType": "uint256",
          "name": "_postId",
          "type": "uint256"
        }
      ],
      "name": "viewComment",
      "outputs": [
        {
          "components": [
            {
              "internalType": "string",
              "name": "commentContent",
              "type": "string"
            },
            {
              "internalType": "address",
              "name": "commentAuthor",
              "type": "address"
            }
          ],
          "internalType": "struct Decentratwitter.comment[]",
          "name": "",
          "type": "tuple[]"
        }
      ],
      "stateMutability": "view",
      "type": "function"
    },
    {
      "inputs": [
        {
          "internalType": "uint256",
          "name": "_postId",
          "type": "uint256"
        }
      ],
      "name": "viewCount",
      "outputs": [
        {
          "internalType": "string",
          "name": "",
          "type": "string"
        }
      ],
      "stateMutability": "view",
      "type": "function"
    }
  ],
  "bytecode": "0x60806040523480156200001157600080fd5b506040518060400160405280600f81526020017f446563656e7472617477697474657200000000000000000000000000000000008152506040518060400160405280600481526020017f4441505000000000000000000000000000000000000000000000000000000000815250816000908051906020019062000096929190620000b8565b508060019080519060200190620000af929190620000b8565b505050620001cd565b828054620000c69062000168565b90600052602060002090601f016020900481019282620000ea576000855562000136565b82601f106200010557805160ff191683800117855562000136565b8280016001018555821562000136579182015b828111156200013557825182559160200191906001019062000118565b5b50905062000145919062000149565b5090565b5b80821115620001645760008160009055506001016200014a565b5090565b600060028204905060018216806200018157607f821691505b602082108114156200019857620001976200019e565b5b50919050565b7f4e487b7100000000000000000000000000000000000000000000000000000000600052602260045260246000fd5b614b9c80620001dd6000396000f3fe6080604052600436106101cd5760003560e01c806385d3cb37116100f7578063c87b56dd11610095578063d85d3d2711610064578063d85d3d27146106b7578063e985e9c5146106f4578063ed5f9e5214610731578063f3d3ddfa1461076e576101cd565b8063c87b56dd146105e1578063c942adf71461061e578063d4df22aa1461065e578063d6313c061461069b576101cd565b8063a22cb465116100d1578063a22cb46514610529578063b88d4fde14610552578063bbe156271461057b578063bdd05adb146105b8576101cd565b806385d3cb37146104aa57806395d89b41146104d35780639f181b5e146104fe576101cd565b8063185c6f841161016f5780634919a7681161013e5780634919a768146103de5780636352211e14610407578063684b08341461044457806370a082311461046d576101cd565b8063185c6f841461033657806323b872dd14610361578063305611001461038a57806342842e0e146103b5576101cd565b8063081812fc116101ab578063081812fc14610265578063095ea7b3146102a25780630b1e7f83146102cb57806317906c2e1461030b576101cd565b806301ffc9a7146101d2578063047b07bf1461020f57806306fdde031461023a575b600080fd5b3480156101de57600080fd5b506101f960048036038101906101f49190613363565b610799565b6040516102069190613ce5565b60405180910390f35b34801561021b57600080fd5b5061022461087b565b6040516102319190613cc3565b60405180910390f35b34801561024657600080fd5b5061024f6109cb565b60405161025c9190613d00565b60405180910390f35b34801561027157600080fd5b5061028c600480360381019061028791906133f6565b610a5d565b6040516102999190613bf6565b60405180910390f35b3480156102ae57600080fd5b506102c960048036038101906102c49190613327565b610ae2565b005b3480156102d757600080fd5b506102f260048036038101906102ed91906133f6565b610bfa565b6040516103029493929190614029565b60405180910390f35b34801561031757600080fd5b50610320610cd2565b60405161032d9190613fc2565b60405180910390f35b34801561034257600080fd5b5061034b610cd8565b6040516103589190613fc2565b60405180910390f35b34801561036d57600080fd5b5061038860048036038101906103839190613221565b610cde565b005b34801561039657600080fd5b5061039f610d3e565b6040516103ac9190613c5d565b60405180910390f35b3480156103c157600080fd5b506103dc60048036038101906103d79190613221565b610f4b565b005b3480156103ea57600080fd5b506104056004803603810190610400919061341f565b610f6b565b005b34801561041357600080fd5b5061042e600480360381019061042991906133f6565b6110d9565b60405161043b9190613bf6565b60405180910390f35b34801561045057600080fd5b5061046b600480360381019061046691906133b5565b61118b565b005b34801561047957600080fd5b50610494600480360381019061048f91906131bc565b61133f565b6040516104a19190613fc2565b60405180910390f35b3480156104b657600080fd5b506104d160048036038101906104cc91906133f6565b6113f7565b005b3480156104df57600080fd5b506104e86114b4565b6040516104f59190613d00565b60405180910390f35b34801561050a57600080fd5b50610513611546565b6040516105209190613fc2565b60405180910390f35b34801561053557600080fd5b50610550600480360381019061054b91906132eb565b61154c565b005b34801561055e57600080fd5b5061057960048036038101906105749190613270565b611562565b005b34801561058757600080fd5b506105a2600480360381019061059d91906131bc565b6115c4565b6040516105af9190613fc2565b60405180910390f35b3480156105c457600080fd5b506105df60048036038101906105da91906133b5565b6115dc565b005b3480156105ed57600080fd5b50610608600480360381019061060391906133f6565b611790565b6040516106159190613d00565b60405180910390f35b34801561062a57600080fd5b50610645600480360381019061064091906133f6565b6118e2565b6040516106559493929190614029565b60405180910390f35b34801561066a57600080fd5b50610685600480360381019061068091906133f6565b6119ba565b6040516106929190613ca1565b60405180910390f35b6106b560048036038101906106b091906133f6565b611b1a565b005b3480156106c357600080fd5b506106de60048036038101906106d991906133b5565b611e3c565b6040516106eb9190613fc2565b60405180910390f35b34801561070057600080fd5b5061071b600480360381019061071691906131e5565b611e83565b6040516107289190613ce5565b60405180910390f35b34801561073d57600080fd5b50610758600480360381019061075391906133f6565b611f17565b6040516107659190613d00565b60405180910390f35b34801561077a57600080fd5b50610783611f42565b6040516107909190613c7f565b60405180910390f35b60007f80ac58cd000000000000000000000000000000000000000000000000000000007bffffffffffffffffffffffffffffffffffffffffffffffffffffffff1916827bffffffffffffffffffffffffffffffffffffffffffffffffffffffff1916148061086457507f5b5e139f000000000000000000000000000000000000000000000000000000007bffffffffffffffffffffffffffffffffffffffffffffffffffffffff1916827bffffffffffffffffffffffffffffffffffffffffffffffffffffffff1916145b8061087457506108738261214f565b5b9050919050565b60606108863361133f565b67ffffffffffffffff8111156108c5577f4e487b7100000000000000000000000000000000000000000000000000000000600052604160045260246000fd5b6040519080825280602002602001820160405280156108f35781602001602082028036833780820191505090505b509050600080600954905060005b818110156109c5573373ffffffffffffffffffffffffffffffffffffffff166109356001836109309190614234565b6110d9565b73ffffffffffffffffffffffffffffffffffffffff1614156109b25760018161095e9190614234565b848481518110610997577f4e487b7100000000000000000000000000000000000000000000000000000000600052603260045260246000fd5b60200260200101818152505082806109ae9061442c565b9350505b80806109bd9061442c565b915050610901565b50505090565b6060600080546109da906143c9565b80601f0160208091040260200160405190810160405280929190818152602001828054610a06906143c9565b8015610a535780601f10610a2857610100808354040283529160200191610a53565b820191906000526020600020905b815481529060010190602001808311610a3657829003601f168201915b5050505050905090565b6000610a68826121b9565b610aa7576040517f08c379a0000000000000000000000000000000000000000000000000000000008152600401610a9e90613ec2565b60405180910390fd5b6004600083815260200190815260200160002060009054906101000a900473ffffffffffffffffffffffffffffffffffffffff169050919050565b6000610aed826110d9565b90508073ffffffffffffffffffffffffffffffffffffffff168373ffffffffffffffffffffffffffffffffffffffff161415610b5e576040517f08c379a0000000000000000000000000000000000000000000000000000000008152600401610b5590613f22565b60405180910390fd5b8073ffffffffffffffffffffffffffffffffffffffff16610b7d612225565b73ffffffffffffffffffffffffffffffffffffffff161480610bac5750610bab81610ba6612225565b611e83565b5b610beb576040517f08c379a0000000000000000000000000000000000000000000000000000000008152600401610be290613de2565b60405180910390fd5b610bf5838361222d565b505050565b600c602052806000526040600020600091509050806000015490806001018054610c23906143c9565b80601f0160208091040260200160405190810160405280929190818152602001828054610c4f906143c9565b8015610c9c5780601f10610c7157610100808354040283529160200191610c9c565b820191906000526020600020905b815481529060010190602001808311610c7f57829003601f168201915b5050505050908060020154908060030160009054906101000a900473ffffffffffffffffffffffffffffffffffffffff16905084565b600a5481565b600b5481565b610cef610ce9612225565b826122e6565b610d2e576040517f08c379a0000000000000000000000000000000000000000000000000000000008152600401610d2590613fa2565b60405180910390fd5b610d398383836123c4565b505050565b6060600a5467ffffffffffffffff811115610d82577f4e487b7100000000000000000000000000000000000000000000000000000000600052604160045260246000fd5b604051908082528060200260200182016040528015610dbb57816020015b610da8612eea565b815260200190600190039081610da05790505b50905060005b8151811015610f4757600c6000600183610ddb9190614234565b815260200190815260200160002060405180608001604052908160008201548152602001600182018054610e0e906143c9565b80601f0160208091040260200160405190810160405280929190818152602001828054610e3a906143c9565b8015610e875780601f10610e5c57610100808354040283529160200191610e87565b820191906000526020600020905b815481529060010190602001808311610e6a57829003601f168201915b50505050508152602001600282015481526020016003820160009054906101000a900473ffffffffffffffffffffffffffffffffffffffff1673ffffffffffffffffffffffffffffffffffffffff1673ffffffffffffffffffffffffffffffffffffffff1681525050828281518110610f29577f4e487b7100000000000000000000000000000000000000000000000000000000600052603260045260246000fd5b60200260200101819052508080610f3f9061442c565b915050610dc1565b5090565b610f6683838360405180602001604052806000815250611562565b505050565b610f73612f28565b83838080601f016020809104026020016040519081016040528093929190818152602001838380828437600081840152601f19601f82011690508083019250505050505050816000018190525081816020019073ffffffffffffffffffffffffffffffffffffffff16908173ffffffffffffffffffffffffffffffffffffffff1681525050600860008681526020019081526020016000208190806001815401808255809150506001900390600052602060002090600202016000909190919091506000820151816000019080519060200190611051929190612f58565b5060208201518160010160006101000a81548173ffffffffffffffffffffffffffffffffffffffff021916908373ffffffffffffffffffffffffffffffffffffffff1602179055505050600160076000878152602001908152602001600020546110bb9190614234565b60076000878152602001908152602001600020819055505050505050565b6000806002600084815260200190815260200160002060009054906101000a900473ffffffffffffffffffffffffffffffffffffffff169050600073ffffffffffffffffffffffffffffffffffffffff168173ffffffffffffffffffffffffffffffffffffffff161415611182576040517f08c379a000000000000000000000000000000000000000000000000000000000815260040161117990613e22565b60405180910390fd5b80915050919050565b60006111963361133f565b116111d6576040517f08c379a00000000000000000000000000000000000000000000000000000000081526004016111cd90613f82565b60405180910390fd5b600081511161121a576040517f08c379a000000000000000000000000000000000000000000000000000000000815260040161121190613ee2565b60405180910390fd5b600b600081548092919061122d9061442c565b91905055506040518060800160405280600b548152602001828152602001600081526020013373ffffffffffffffffffffffffffffffffffffffff16815250600d6000600b5481526020019081526020016000206000820151816000015560208201518160010190805190602001906112a7929190612f58565b506040820151816002015560608201518160030160006101000a81548173ffffffffffffffffffffffffffffffffffffffff021916908373ffffffffffffffffffffffffffffffffffffffff1602179055509050507f2d3125e25ce24be39a2fc2ec1b56631236757347a3b5a22261e180f74ac80d69600b54826000336040516113349493929190613fdd565b60405180910390a150565b60008073ffffffffffffffffffffffffffffffffffffffff168273ffffffffffffffffffffffffffffffffffffffff1614156113b0576040517f08c379a00000000000000000000000000000000000000000000000000000000081526004016113a790613e02565b60405180910390fd5b600360008373ffffffffffffffffffffffffffffffffffffffff1673ffffffffffffffffffffffffffffffffffffffff168152602001908152602001600020549050919050565b3373ffffffffffffffffffffffffffffffffffffffff16611417826110d9565b73ffffffffffffffffffffffffffffffffffffffff161461146d576040517f08c379a000000000000000000000000000000000000000000000000000000000815260040161146490613f42565b60405180910390fd5b80600e60003373ffffffffffffffffffffffffffffffffffffffff1673ffffffffffffffffffffffffffffffffffffffff1681526020019081526020016000208190555050565b6060600180546114c3906143c9565b80601f01602080910402602001604051908101604052809291908181526020018280546114ef906143c9565b801561153c5780601f106115115761010080835404028352916020019161153c565b820191906000526020600020905b81548152906001019060200180831161151f57829003601f168201915b5050505050905090565b60095481565b61155e611557612225565b838361262b565b5050565b61157361156d612225565b836122e6565b6115b2576040517f08c379a00000000000000000000000000000000000000000000000000000000081526004016115a990613fa2565b60405180910390fd5b6115be84848484612798565b50505050565b600e6020528060005260406000206000915090505481565b60006115e73361133f565b11611627576040517f08c379a000000000000000000000000000000000000000000000000000000000815260040161161e90613f82565b60405180910390fd5b600081511161166b576040517f08c379a000000000000000000000000000000000000000000000000000000000815260040161166290613ee2565b60405180910390fd5b600a600081548092919061167e9061442c565b91905055506040518060800160405280600a548152602001828152602001600081526020013373ffffffffffffffffffffffffffffffffffffffff16815250600c6000600a5481526020019081526020016000206000820151816000015560208201518160010190805190602001906116f8929190612f58565b506040820151816002015560608201518160030160006101000a81548173ffffffffffffffffffffffffffffffffffffffff021916908373ffffffffffffffffffffffffffffffffffffffff1602179055509050507fc66336337a24e513f909b3b25119854dba8385d51307dbc7d31d1b2805e19c7e600a54826000336040516117859493929190613fdd565b60405180910390a150565b606061179b826121b9565b6117da576040517f08c379a00000000000000000000000000000000000000000000000000000000081526004016117d190613ea2565b60405180910390fd5b60006006600084815260200190815260200160002080546117fa906143c9565b80601f0160208091040260200160405190810160405280929190818152602001828054611826906143c9565b80156118735780601f1061184857610100808354040283529160200191611873565b820191906000526020600020905b81548152906001019060200180831161185657829003601f168201915b5050505050905060006118846127f4565b905060008151141561189a5781925050506118dd565b6000825111156118cf5780826040516020016118b7929190613bd2565b604051602081830303815290604052925050506118dd565b6118d88461280b565b925050505b919050565b600d60205280600052604060002060009150905080600001549080600101805461190b906143c9565b80601f0160208091040260200160405190810160405280929190818152602001828054611937906143c9565b80156119845780601f1061195957610100808354040283529160200191611984565b820191906000526020600020905b81548152906001019060200180831161196757829003601f168201915b5050505050908060020154908060030160009054906101000a900473ffffffffffffffffffffffffffffffffffffffff16905084565b6060600060086000848152602001908152602001600020805480602002602001604051908101604052809291908181526020016000905b82821015611b0b5783829060005260206000209060020201604051806040016040529081600082018054611a24906143c9565b80601f0160208091040260200160405190810160405280929190818152602001828054611a50906143c9565b8015611a9d5780601f10611a7257610100808354040283529160200191611a9d565b820191906000526020600020905b815481529060010190602001808311611a8057829003601f168201915b505050505081526020016001820160009054906101000a900473ffffffffffffffffffffffffffffffffffffffff1673ffffffffffffffffffffffffffffffffffffffff1673ffffffffffffffffffffffffffffffffffffffff1681525050815260200190600101906119f1565b50505050905080915050919050565b600081118015611b2c5750600a548111155b611b6b576040517f08c379a0000000000000000000000000000000000000000000000000000000008152600401611b6290613e62565b60405180910390fd5b6000600c600083815260200190815260200160002060405180608001604052908160008201548152602001600182018054611ba5906143c9565b80601f0160208091040260200160405190810160405280929190818152602001828054611bd1906143c9565b8015611c1e5780601f10611bf357610100808354040283529160200191611c1e565b820191906000526020600020905b815481529060010190602001808311611c0157829003601f168201915b50505050508152602001600282015481526020016003820160009054906101000a900473ffffffffffffffffffffffffffffffffffffffff1673ffffffffffffffffffffffffffffffffffffffff1673ffffffffffffffffffffffffffffffffffffffff168152505090503373ffffffffffffffffffffffffffffffffffffffff16816060015173ffffffffffffffffffffffffffffffffffffffff161415611cfc576040517f08c379a0000000000000000000000000000000000000000000000000000000008152600401611cf390613f62565b60405180910390fd5b806060015173ffffffffffffffffffffffffffffffffffffffff166108fc349081150290604051600060405180830381858888f19350505050158015611d46573d6000803e3d6000fd5b503481604001818151611d599190614234565b9150818152505080600c6000848152602001908152602001600020600082015181600001556020820151816001019080519060200190611d9a929190612f58565b506040820151816002015560608201518160030160006101000a81548173ffffffffffffffffffffffffffffffffffffffff021916908373ffffffffffffffffffffffffffffffffffffffff1602179055509050507f20988fe475351e75813672abada1dddb7ac67cbbeb81e61e1160b8329d8cdf1c82826020015183604001518460600151604051611e309493929190614029565b60405180910390a15050565b600060096000815480929190611e519061442c565b9190505550611e62336009546128b2565b611e6e600954836128d0565b611e796009546113f7565b6009549050919050565b6000600560008473ffffffffffffffffffffffffffffffffffffffff1673ffffffffffffffffffffffffffffffffffffffff16815260200190815260200160002060008373ffffffffffffffffffffffffffffffffffffffff1673ffffffffffffffffffffffffffffffffffffffff16815260200190815260200160002060009054906101000a900460ff16905092915050565b60606000611f376007600085815260200190815260200160002054612944565b905080915050919050565b6060600b5467ffffffffffffffff811115611f86577f4e487b7100000000000000000000000000000000000000000000000000000000600052604160045260246000fd5b604051908082528060200260200182016040528015611fbf57816020015b611fac612fde565b815260200190600190039081611fa45790505b50905060005b815181101561214b57600d6000600183611fdf9190614234565b815260200190815260200160002060405180608001604052908160008201548152602001600182018054612012906143c9565b80601f016020809104026020016040519081016040528092919081815260200182805461203e906143c9565b801561208b5780601f106120605761010080835404028352916020019161208b565b820191906000526020600020905b81548152906001019060200180831161206e57829003601f168201915b50505050508152602001600282015481526020016003820160009054906101000a900473ffffffffffffffffffffffffffffffffffffffff1673ffffffffffffffffffffffffffffffffffffffff1673ffffffffffffffffffffffffffffffffffffffff168152505082828151811061212d577f4e487b7100000000000000000000000000000000000000000000000000000000600052603260045260246000fd5b602002602001018190525080806121439061442c565b915050611fc5565b5090565b60007f01ffc9a7000000000000000000000000000000000000000000000000000000007bffffffffffffffffffffffffffffffffffffffffffffffffffffffff1916827bffffffffffffffffffffffffffffffffffffffffffffffffffffffff1916149050919050565b60008073ffffffffffffffffffffffffffffffffffffffff166002600084815260200190815260200160002060009054906101000a900473ffffffffffffffffffffffffffffffffffffffff1673ffffffffffffffffffffffffffffffffffffffff1614159050919050565b600033905090565b816004600083815260200190815260200160002060006101000a81548173ffffffffffffffffffffffffffffffffffffffff021916908373ffffffffffffffffffffffffffffffffffffffff160217905550808273ffffffffffffffffffffffffffffffffffffffff166122a0836110d9565b73ffffffffffffffffffffffffffffffffffffffff167f8c5be1e5ebec7d5bd14f71427d1e84f3dd0314c0f7b2291e5b200ac8c7c3b92560405160405180910390a45050565b60006122f1826121b9565b612330576040517f08c379a000000000000000000000000000000000000000000000000000000000815260040161232790613dc2565b60405180910390fd5b600061233b836110d9565b90508073ffffffffffffffffffffffffffffffffffffffff168473ffffffffffffffffffffffffffffffffffffffff1614806123aa57508373ffffffffffffffffffffffffffffffffffffffff1661239284610a5d565b73ffffffffffffffffffffffffffffffffffffffff16145b806123bb57506123ba8185611e83565b5b91505092915050565b8273ffffffffffffffffffffffffffffffffffffffff166123e4826110d9565b73ffffffffffffffffffffffffffffffffffffffff161461243a576040517f08c379a000000000000000000000000000000000000000000000000000000000815260040161243190613d42565b60405180910390fd5b600073ffffffffffffffffffffffffffffffffffffffff168273ffffffffffffffffffffffffffffffffffffffff1614156124aa576040517f08c379a00000000000000000000000000000000000000000000000000000000081526004016124a190613d82565b60405180910390fd5b6124b5838383612af1565b6124c060008261222d565b6001600360008573ffffffffffffffffffffffffffffffffffffffff1673ffffffffffffffffffffffffffffffffffffffff168152602001908152602001600020600082825461251091906142bb565b925050819055506001600360008473ffffffffffffffffffffffffffffffffffffffff1673ffffffffffffffffffffffffffffffffffffffff16815260200190815260200160002060008282546125679190614234565b92505081905550816002600083815260200190815260200160002060006101000a81548173ffffffffffffffffffffffffffffffffffffffff021916908373ffffffffffffffffffffffffffffffffffffffff160217905550808273ffffffffffffffffffffffffffffffffffffffff168473ffffffffffffffffffffffffffffffffffffffff167fddf252ad1be2c89b69c2b068fc378daa952ba7f163c4a11628f55a4df523b3ef60405160405180910390a4612626838383612af6565b505050565b8173ffffffffffffffffffffffffffffffffffffffff168373ffffffffffffffffffffffffffffffffffffffff16141561269a576040517f08c379a000000000000000000000000000000000000000000000000000000000815260040161269190613da2565b60405180910390fd5b80600560008573ffffffffffffffffffffffffffffffffffffffff1673ffffffffffffffffffffffffffffffffffffffff16815260200190815260200160002060008473ffffffffffffffffffffffffffffffffffffffff1673ffffffffffffffffffffffffffffffffffffffff16815260200190815260200160002060006101000a81548160ff0219169083151502179055508173ffffffffffffffffffffffffffffffffffffffff168373ffffffffffffffffffffffffffffffffffffffff167f17307eab39ab6107e8899845ad3d59bd9653f200f220920489ca2b5937696c318360405161278b9190613ce5565b60405180910390a3505050565b6127a38484846123c4565b6127af84848484612afb565b6127ee576040517f08c379a00000000000000000000000000000000000000000000000000000000081526004016127e590613d22565b60405180910390fd5b50505050565b606060405180602001604052806000815250905090565b6060612816826121b9565b612855576040517f08c379a000000000000000000000000000000000000000000000000000000000815260040161284c90613f02565b60405180910390fd5b600061285f6127f4565b9050600081511161287f57604051806020016040528060008152506128aa565b8061288984612944565b60405160200161289a929190613bd2565b6040516020818303038152906040525b915050919050565b6128cc828260405180602001604052806000815250612c92565b5050565b6128d9826121b9565b612918576040517f08c379a000000000000000000000000000000000000000000000000000000000815260040161290f90613e42565b60405180910390fd5b8060066000848152602001908152602001600020908051906020019061293f929190612f58565b505050565b6060600082141561298c576040518060400160405280600181526020017f30000000000000000000000000000000000000000000000000000000000000008152509050612aec565b600082905060005b600082146129be5780806129a79061442c565b915050600a826129b7919061428a565b9150612994565b60008167ffffffffffffffff811115612a00577f4e487b7100000000000000000000000000000000000000000000000000000000600052604160045260246000fd5b6040519080825280601f01601f191660200182016040528015612a325781602001600182028036833780820191505090505b5090505b60008514612ae557600182612a4b91906142bb565b9150600a85612a5a9190614475565b6030612a669190614234565b60f81b818381518110612aa2577f4e487b7100000000000000000000000000000000000000000000000000000000600052603260045260246000fd5b60200101907effffffffffffffffffffffffffffffffffffffffffffffffffffffffffffff1916908160001a905350600a85612ade919061428a565b9450612a36565b8093505050505b919050565b505050565b505050565b6000612b1c8473ffffffffffffffffffffffffffffffffffffffff16612ced565b15612c85578373ffffffffffffffffffffffffffffffffffffffff1663150b7a02612b45612225565b8786866040518563ffffffff1660e01b8152600401612b679493929190613c11565b602060405180830381600087803b158015612b8157600080fd5b505af1925050508015612bb257506040513d601f19601f82011682018060405250810190612baf919061338c565b60015b612c35573d8060008114612be2576040519150601f19603f3d011682016040523d82523d6000602084013e612be7565b606091505b50600081511415612c2d576040517f08c379a0000000000000000000000000000000000000000000000000000000008152600401612c2490613d22565b60405180910390fd5b805181602001fd5b63150b7a0260e01b7bffffffffffffffffffffffffffffffffffffffffffffffffffffffff1916817bffffffffffffffffffffffffffffffffffffffffffffffffffffffff191614915050612c8a565b600190505b949350505050565b612c9c8383612d10565b612ca96000848484612afb565b612ce8576040517f08c379a0000000000000000000000000000000000000000000000000000000008152600401612cdf90613d22565b60405180910390fd5b505050565b6000808273ffffffffffffffffffffffffffffffffffffffff163b119050919050565b600073ffffffffffffffffffffffffffffffffffffffff168273ffffffffffffffffffffffffffffffffffffffff161415612d80576040517f08c379a0000000000000000000000000000000000000000000000000000000008152600401612d7790613e82565b60405180910390fd5b612d89816121b9565b15612dc9576040517f08c379a0000000000000000000000000000000000000000000000000000000008152600401612dc090613d62565b60405180910390fd5b612dd560008383612af1565b6001600360008473ffffffffffffffffffffffffffffffffffffffff1673ffffffffffffffffffffffffffffffffffffffff1681526020019081526020016000206000828254612e259190614234565b92505081905550816002600083815260200190815260200160002060006101000a81548173ffffffffffffffffffffffffffffffffffffffff021916908373ffffffffffffffffffffffffffffffffffffffff160217905550808273ffffffffffffffffffffffffffffffffffffffff16600073ffffffffffffffffffffffffffffffffffffffff167fddf252ad1be2c89b69c2b068fc378daa952ba7f163c4a11628f55a4df523b3ef60405160405180910390a4612ee660008383612af6565b5050565b6040518060800160405280600081526020016060815260200160008152602001600073ffffffffffffffffffffffffffffffffffffffff1681525090565b604051806040016040528060608152602001600073ffffffffffffffffffffffffffffffffffffffff1681525090565b828054612f64906143c9565b90600052602060002090601f016020900481019282612f865760008555612fcd565b82601f10612f9f57805160ff1916838001178555612fcd565b82800160010185558215612fcd579182015b82811115612fcc578251825591602001919060010190612fb1565b5b509050612fda919061301c565b5090565b6040518060800160405280600081526020016060815260200160008152602001600073ffffffffffffffffffffffffffffffffffffffff1681525090565b5b8082111561303557600081600090555060010161301d565b5090565b600061304c6130478461409a565b614075565b90508281526020810184848401111561306457600080fd5b61306f848285614387565b509392505050565b600061308a613085846140cb565b614075565b9050828152602081018484840111156130a257600080fd5b6130ad848285614387565b509392505050565b6000813590506130c481614b0a565b92915050565b6000813590506130d981614b21565b92915050565b6000813590506130ee81614b38565b92915050565b60008151905061310381614b38565b92915050565b600082601f83011261311a57600080fd5b813561312a848260208601613039565b91505092915050565b60008083601f84011261314557600080fd5b8235905067ffffffffffffffff81111561315e57600080fd5b60208301915083600182028301111561317657600080fd5b9250929050565b600082601f83011261318e57600080fd5b813561319e848260208601613077565b91505092915050565b6000813590506131b681614b4f565b92915050565b6000602082840312156131ce57600080fd5b60006131dc848285016130b5565b91505092915050565b600080604083850312156131f857600080fd5b6000613206858286016130b5565b9250506020613217858286016130b5565b9150509250929050565b60008060006060848603121561323657600080fd5b6000613244868287016130b5565b9350506020613255868287016130b5565b9250506040613266868287016131a7565b9150509250925092565b6000806000806080858703121561328657600080fd5b6000613294878288016130b5565b94505060206132a5878288016130b5565b93505060406132b6878288016131a7565b925050606085013567ffffffffffffffff8111156132d357600080fd5b6132df87828801613109565b91505092959194509250565b600080604083850312156132fe57600080fd5b600061330c858286016130b5565b925050602061331d858286016130ca565b9150509250929050565b6000806040838503121561333a57600080fd5b6000613348858286016130b5565b9250506020613359858286016131a7565b9150509250929050565b60006020828403121561337557600080fd5b6000613383848285016130df565b91505092915050565b60006020828403121561339e57600080fd5b60006133ac848285016130f4565b91505092915050565b6000602082840312156133c757600080fd5b600082013567ffffffffffffffff8111156133e157600080fd5b6133ed8482850161317d565b91505092915050565b60006020828403121561340857600080fd5b6000613416848285016131a7565b91505092915050565b6000806000806060858703121561343557600080fd5b6000613443878288016131a7565b945050602085013567ffffffffffffffff81111561346057600080fd5b61346c87828801613133565b9350935050604061347f878288016130b5565b91505092959194509250565b60006134978383613ab1565b905092915050565b60006134ab8383613b14565b905092915050565b60006134bf8383613b77565b905092915050565b60006134d38383613bb4565b60208301905092915050565b6134e881614301565b82525050565b6134f781614301565b82525050565b613506816142ef565b82525050565b613515816142ef565b82525050565b60006135268261413c565b61353081856141b2565b935083602082028501613542856140fc565b8060005b8581101561357e578484038952815161355f858261348b565b945061356a8361417e565b925060208a01995050600181019050613546565b50829750879550505050505092915050565b600061359b82614147565b6135a581856141c3565b9350836020820285016135b78561410c565b8060005b858110156135f357848403895281516135d4858261349f565b94506135df8361418b565b925060208a019950506001810190506135bb565b50829750879550505050505092915050565b600061361082614152565b61361a81856141d4565b93508360208202850161362c8561411c565b8060005b85811015613668578484038952815161364985826134b3565b945061365483614198565b925060208a01995050600181019050613630565b50829750879550505050505092915050565b60006136858261415d565b61368f81856141e5565b935061369a8361412c565b8060005b838110156136cb5781516136b288826134c7565b97506136bd836141a5565b92505060018101905061369e565b5085935050505092915050565b6136e181614313565b82525050565b60006136f282614168565b6136fc81856141f6565b935061370c818560208601614396565b61371581614562565b840191505092915050565b61372981614375565b82525050565b600061373a82614173565b6137448185614207565b9350613754818560208601614396565b61375d81614562565b840191505092915050565b600061377382614173565b61377d8185614218565b935061378d818560208601614396565b61379681614562565b840191505092915050565b60006137ac82614173565b6137b68185614229565b93506137c6818560208601614396565b80840191505092915050565b60006137df603283614218565b91506137ea82614573565b604082019050919050565b6000613802602583614218565b915061380d826145c2565b604082019050919050565b6000613825601c83614218565b915061383082614611565b602082019050919050565b6000613848602483614218565b91506138538261463a565b604082019050919050565b600061386b601983614218565b915061387682614689565b602082019050919050565b600061388e602c83614218565b9150613899826146b2565b604082019050919050565b60006138b1603883614218565b91506138bc82614701565b604082019050919050565b60006138d4602a83614218565b91506138df82614750565b604082019050919050565b60006138f7602983614218565b91506139028261479f565b604082019050919050565b600061391a602e83614218565b9150613925826147ee565b604082019050919050565b600061393d600f83614218565b91506139488261483d565b602082019050919050565b6000613960602083614218565b915061396b82614866565b602082019050919050565b6000613983603183614218565b915061398e8261488f565b604082019050919050565b60006139a6602c83614218565b91506139b1826148de565b604082019050919050565b60006139c9601983614218565b91506139d48261492d565b602082019050919050565b60006139ec602f83614218565b91506139f782614956565b604082019050919050565b6000613a0f602183614218565b9150613a1a826149a5565b604082019050919050565b6000613a32603383614218565b9150613a3d826149f4565b604082019050919050565b6000613a55601883614218565b9150613a6082614a43565b602082019050919050565b6000613a78602683614218565b9150613a8382614a6c565b604082019050919050565b6000613a9b603183614218565b9150613aa682614abb565b604082019050919050565b6000608083016000830151613ac96000860182613bb4565b5060208301518482036020860152613ae1828261372f565b9150506040830151613af66040860182613bb4565b506060830151613b0960608601826134df565b508091505092915050565b6000608083016000830151613b2c6000860182613bb4565b5060208301518482036020860152613b44828261372f565b9150506040830151613b596040860182613bb4565b506060830151613b6c60608601826134df565b508091505092915050565b60006040830160008301518482036000860152613b94828261372f565b9150506020830151613ba960208601826134fd565b508091505092915050565b613bbd8161436b565b82525050565b613bcc8161436b565b82525050565b6000613bde82856137a1565b9150613bea82846137a1565b91508190509392505050565b6000602082019050613c0b600083018461350c565b92915050565b6000608082019050613c26600083018761350c565b613c33602083018661350c565b613c406040830185613bc3565b8181036060830152613c5281846136e7565b905095945050505050565b60006020820190508181036000830152613c77818461351b565b905092915050565b60006020820190508181036000830152613c998184613590565b905092915050565b60006020820190508181036000830152613cbb8184613605565b905092915050565b60006020820190508181036000830152613cdd818461367a565b905092915050565b6000602082019050613cfa60008301846136d8565b92915050565b60006020820190508181036000830152613d1a8184613768565b905092915050565b60006020820190508181036000830152613d3b816137d2565b9050919050565b60006020820190508181036000830152613d5b816137f5565b9050919050565b60006020820190508181036000830152613d7b81613818565b9050919050565b60006020820190508181036000830152613d9b8161383b565b9050919050565b60006020820190508181036000830152613dbb8161385e565b9050919050565b60006020820190508181036000830152613ddb81613881565b9050919050565b60006020820190508181036000830152613dfb816138a4565b9050919050565b60006020820190508181036000830152613e1b816138c7565b9050919050565b60006020820190508181036000830152613e3b816138ea565b9050919050565b60006020820190508181036000830152613e5b8161390d565b9050919050565b60006020820190508181036000830152613e7b81613930565b9050919050565b60006020820190508181036000830152613e9b81613953565b9050919050565b60006020820190508181036000830152613ebb81613976565b9050919050565b60006020820190508181036000830152613edb81613999565b9050919050565b60006020820190508181036000830152613efb816139bc565b9050919050565b60006020820190508181036000830152613f1b816139df565b9050919050565b60006020820190508181036000830152613f3b81613a02565b9050919050565b60006020820190508181036000830152613f5b81613a25565b9050919050565b60006020820190508181036000830152613f7b81613a48565b9050919050565b60006020820190508181036000830152613f9b81613a6b565b9050919050565b60006020820190508181036000830152613fbb81613a8e565b9050919050565b6000602082019050613fd76000830184613bc3565b92915050565b6000608082019050613ff26000830187613bc3565b81810360208301526140048186613768565b90506140136040830185613720565b61402060608301846134ee565b95945050505050565b600060808201905061403e6000830187613bc3565b81810360208301526140508186613768565b905061405f6040830185613bc3565b61406c60608301846134ee565b95945050505050565b600061407f614090565b905061408b82826143fb565b919050565b6000604051905090565b600067ffffffffffffffff8211156140b5576140b4614533565b5b6140be82614562565b9050602081019050919050565b600067ffffffffffffffff8211156140e6576140e5614533565b5b6140ef82614562565b9050602081019050919050565b6000819050602082019050919050565b6000819050602082019050919050565b6000819050602082019050919050565b6000819050602082019050919050565b600081519050919050565b600081519050919050565b600081519050919050565b600081519050919050565b600081519050919050565b600081519050919050565b6000602082019050919050565b6000602082019050919050565b6000602082019050919050565b6000602082019050919050565b600082825260208201905092915050565b600082825260208201905092915050565b600082825260208201905092915050565b600082825260208201905092915050565b600082825260208201905092915050565b600082825260208201905092915050565b600082825260208201905092915050565b600081905092915050565b600061423f8261436b565b915061424a8361436b565b9250827fffffffffffffffffffffffffffffffffffffffffffffffffffffffffffffffff0382111561427f5761427e6144a6565b5b828201905092915050565b60006142958261436b565b91506142a08361436b565b9250826142b0576142af6144d5565b5b828204905092915050565b60006142c68261436b565b91506142d18361436b565b9250828210156142e4576142e36144a6565b5b828203905092915050565b60006142fa8261434b565b9050919050565b600061430c8261434b565b9050919050565b60008115159050919050565b60007fffffffff0000000000000000000000000000000000000000000000000000000082169050919050565b600073ffffffffffffffffffffffffffffffffffffffff82169050919050565b6000819050919050565b60006143808261436b565b9050919050565b82818337600083830152505050565b60005b838110156143b4578082015181840152602081019050614399565b838111156143c3576000848401525b50505050565b600060028204905060018216806143e157607f821691505b602082108114156143f5576143f4614504565b5b50919050565b61440482614562565b810181811067ffffffffffffffff8211171561442357614422614533565b5b80604052505050565b60006144378261436b565b91507fffffffffffffffffffffffffffffffffffffffffffffffffffffffffffffffff82141561446a576144696144a6565b5b600182019050919050565b60006144808261436b565b915061448b8361436b565b92508261449b5761449a6144d5565b5b828206905092915050565b7f4e487b7100000000000000000000000000000000000000000000000000000000600052601160045260246000fd5b7f4e487b7100000000000000000000000000000000000000000000000000000000600052601260045260246000fd5b7f4e487b7100000000000000000000000000000000000000000000000000000000600052602260045260246000fd5b7f4e487b7100000000000000000000000000000000000000000000000000000000600052604160045260246000fd5b6000601f19601f8301169050919050565b7f4552433732313a207472616e7366657220746f206e6f6e20455243373231526560008201527f63656976657220696d706c656d656e7465720000000000000000000000000000602082015250565b7f4552433732313a207472616e736665722066726f6d20696e636f72726563742060008201527f6f776e6572000000000000000000000000000000000000000000000000000000602082015250565b7f4552433732313a20746f6b656e20616c7265616479206d696e74656400000000600082015250565b7f4552433732313a207472616e7366657220746f20746865207a65726f2061646460008201527f7265737300000000000000000000000000000000000000000000000000000000602082015250565b7f4552433732313a20617070726f766520746f2063616c6c657200000000000000600082015250565b7f4552433732313a206f70657261746f7220717565727920666f72206e6f6e657860008201527f697374656e7420746f6b656e0000000000000000000000000000000000000000602082015250565b7f4552433732313a20617070726f76652063616c6c6572206973206e6f74206f7760008201527f6e6572206e6f7220617070726f76656420666f7220616c6c0000000000000000602082015250565b7f4552433732313a2062616c616e636520717565727920666f7220746865207a6560008201527f726f206164647265737300000000000000000000000000000000000000000000602082015250565b7f4552433732313a206f776e657220717565727920666f72206e6f6e657869737460008201527f656e7420746f6b656e0000000000000000000000000000000000000000000000602082015250565b7f45524337323155524953746f726167653a2055524920736574206f66206e6f6e60008201527f6578697374656e7420746f6b656e000000000000000000000000000000000000602082015250565b7f496e76616c696420706f73742069640000000000000000000000000000000000600082015250565b7f4552433732313a206d696e7420746f20746865207a65726f2061646472657373600082015250565b7f45524337323155524953746f726167653a2055524920717565727920666f722060008201527f6e6f6e6578697374656e7420746f6b656e000000000000000000000000000000602082015250565b7f4552433732313a20617070726f76656420717565727920666f72206e6f6e657860008201527f697374656e7420746f6b656e0000000000000000000000000000000000000000602082015250565b7f43616e6e6f74207061737320616e20656d707479206861736800000000000000600082015250565b7f4552433732314d657461646174613a2055524920717565727920666f72206e6f60008201527f6e6578697374656e7420746f6b656e0000000000000000000000000000000000602082015250565b7f4552433732313a20617070726f76616c20746f2063757272656e74206f776e6560008201527f7200000000000000000000000000000000000000000000000000000000000000602082015250565b7f4d757374206f776e20746865206e667420796f752077616e7420746f2073656c60008201527f65637420617320796f75722070726f66696c6500000000000000000000000000602082015250565b7f43616e6e6f742074697020796f7572206f776e20706f73740000000000000000600082015250565b7f4d757374206f776e206120646563656e74726174776974746572206e6674207460008201527f6f20706f73740000000000000000000000000000000000000000000000000000602082015250565b7f4552433732313a207472616e736665722063616c6c6572206973206e6f74206f60008201527f776e6572206e6f7220617070726f766564000000000000000000000000000000602082015250565b614b13816142ef565b8114614b1e57600080fd5b50565b614b2a81614313565b8114614b3557600080fd5b50565b614b418161431f565b8114614b4c57600080fd5b50565b614b588161436b565b8114614b6357600080fd5b5056fea2646970667358221220316abbcaef4fe7c364fe1e51c632c3f7c3549e358dbcafd52f8cfb089506a2d264736f6c63430008040033",
  "linkReferences": {},
  "deployedLinkReferences": {}
}