{
  "_format": "hh-sol-artifact-1",
  "contractName": "Decentratwitter",
  "sourceName": "contracts/Decentratwitter.sol",
  "abi": [
    {
      "inputs": [],
      "stateMutability": "nonpayable",
      "type": "constructor"
    },
    {
      "anonymous": false,
      "inputs": [
        {
          "indexed": true,
          "internalType": "address",
          "name": "owner",
          "type": "address"
        },
        {
          "indexed": true,
          "internalType": "address",
          "name": "approved",
          "type": "address"
        },
        {
          "indexed": true,
          "internalType": "uint256",
          "name": "tokenId",
          "type": "uint256"
        }
      ],
      "name": "Approval",
      "type": "event"
    },
    {
      "anonymous": false,
      "inputs": [
        {
          "indexed": true,
          "internalType": "address",
          "name": "owner",
          "type": "address"
        },
        {
          "indexed": true,
          "internalType": "address",
          "name": "operator",
          "type": "address"
        },
        {
          "indexed": false,
          "internalType": "bool",
          "name": "approved",
          "type": "bool"
        }
      ],
      "name": "ApprovalForAll",
      "type": "event"
    },
    {
      "anonymous": false,
      "inputs": [
        {
          "indexed": false,
          "internalType": "uint256",
          "name": "id",
          "type": "uint256"
        },
        {
          "indexed": false,
          "internalType": "string",
          "name": "hash",
          "type": "string"
        },
        {
          "indexed": false,
          "internalType": "uint256",
          "name": "tipAmount",
          "type": "uint256"
        },
        {
          "indexed": false,
          "internalType": "address payable",
          "name": "author",
          "type": "address"
        }
      ],
      "name": "PostCreated",
      "type": "event"
    },
    {
      "anonymous": false,
      "inputs": [
        {
          "indexed": false,
          "internalType": "uint256",
          "name": "id",
          "type": "uint256"
        },
        {
          "indexed": false,
          "internalType": "string",
          "name": "hash",
          "type": "string"
        },
        {
          "indexed": false,
          "internalType": "uint256",
          "name": "tipAmount",
          "type": "uint256"
        },
        {
          "indexed": false,
          "internalType": "address payable",
          "name": "author",
          "type": "address"
        }
      ],
      "name": "PostTipped",
      "type": "event"
    },
    {
      "anonymous": false,
      "inputs": [
        {
          "indexed": false,
          "internalType": "uint256",
          "name": "id",
          "type": "uint256"
        },
        {
          "indexed": false,
          "internalType": "string",
          "name": "hash",
          "type": "string"
        },
        {
          "indexed": false,
          "internalType": "uint256",
          "name": "tipAmount",
          "type": "uint256"
        },
        {
          "indexed": false,
          "internalType": "address payable",
          "name": "author",
          "type": "address"
        }
      ],
      "name": "ReportCreated",
      "type": "event"
    },
    {
      "anonymous": false,
      "inputs": [
        {
          "indexed": true,
          "internalType": "address",
          "name": "from",
          "type": "address"
        },
        {
          "indexed": true,
          "internalType": "address",
          "name": "to",
          "type": "address"
        },
        {
          "indexed": true,
          "internalType": "uint256",
          "name": "tokenId",
          "type": "uint256"
        }
      ],
      "name": "Transfer",
      "type": "event"
    },
    {
      "inputs": [
        {
          "internalType": "address",
          "name": "to",
          "type": "address"
        },
        {
          "internalType": "uint256",
          "name": "tokenId",
          "type": "uint256"
        }
      ],
      "name": "approve",
      "outputs": [],
      "stateMutability": "nonpayable",
      "type": "function"
    },
    {
      "inputs": [
        {
          "internalType": "address",
          "name": "owner",
          "type": "address"
        }
      ],
      "name": "balanceOf",
      "outputs": [
        {
          "internalType": "uint256",
          "name": "",
          "type": "uint256"
        }
      ],
      "stateMutability": "view",
      "type": "function"
    },
    {
      "inputs": [
        {
          "internalType": "uint256",
          "name": "",
          "type": "uint256"
        }
      ],
      "name": "commentCount",
      "outputs": [
        {
          "internalType": "uint256",
          "name": "",
          "type": "uint256"
        }
      ],
      "stateMutability": "view",
      "type": "function"
    },
    {
      "inputs": [],
      "name": "getAllPosts",
      "outputs": [
        {
          "components": [
            {
              "internalType": "uint256",
              "name": "id",
              "type": "uint256"
            },
            {
              "internalType": "string",
              "name": "hash",
              "type": "string"
            },
            {
              "internalType": "uint256",
              "name": "tipAmount",
              "type": "uint256"
            },
            {
              "internalType": "address payable",
              "name": "author",
              "type": "address"
            }
          ],
          "internalType": "struct Decentratwitter.Post[]",
          "name": "_posts",
          "type": "tuple[]"
        }
      ],
      "stateMutability": "view",
      "type": "function"
    },
    {
      "inputs": [],
      "name": "getAllReports",
      "outputs": [
        {
          "components": [
            {
              "internalType": "uint256",
              "name": "id",
              "type": "uint256"
            },
            {
              "internalType": "string",
              "name": "hash",
              "type": "string"
            },
            {
              "internalType": "uint256",
              "name": "tipAmount",
              "type": "uint256"
            },
            {
              "internalType": "address payable",
              "name": "author",
              "type": "address"
            }
          ],
          "internalType": "struct Decentratwitter.Report[]",
          "name": "_reports",
          "type": "tuple[]"
        }
      ],
      "stateMutability": "view",
      "type": "function"
    },
    {
      "inputs": [
        {
          "internalType": "uint256",
          "name": "tokenId",
          "type": "uint256"
        }
      ],
      "name": "getApproved",
      "outputs": [
        {
          "internalType": "address",
          "name": "",
          "type": "address"
        }
      ],
      "stateMutability": "view",
      "type": "function"
    },
    {
      "inputs": [],
      "name": "getMyNfts",
      "outputs": [
        {
          "internalType": "uint256[]",
          "name": "_ids",
          "type": "uint256[]"
        }
      ],
      "stateMutability": "view",
      "type": "function"
    },
    {
      "inputs": [
        {
          "internalType": "address",
          "name": "owner",
          "type": "address"
        },
        {
          "internalType": "address",
          "name": "operator",
          "type": "address"
        }
      ],
      "name": "isApprovedForAll",
      "outputs": [
        {
          "internalType": "bool",
          "name": "",
          "type": "bool"
        }
      ],
      "stateMutability": "view",
      "type": "function"
    },
    {
      "inputs": [
        {
          "internalType": "string",
          "name": "_tokenURI",
          "type": "string"
        }
      ],
      "name": "mint",
      "outputs": [
        {
          "internalType": "uint256",
          "name": "",
          "type": "uint256"
        }
      ],
      "stateMutability": "nonpayable",
      "type": "function"
    },
    {
      "inputs": [],
      "name": "name",
      "outputs": [
        {
          "internalType": "string",
          "name": "",
          "type": "string"
        }
      ],
      "stateMutability": "view",
      "type": "function"
    },
    {
      "inputs": [
        {
          "internalType": "uint256",
          "name": "tokenId",
          "type": "uint256"
        }
      ],
      "name": "ownerOf",
      "outputs": [
        {
          "internalType": "address",
          "name": "",
          "type": "address"
        }
      ],
      "stateMutability": "view",
      "type": "function"
    },
    {
      "inputs": [
        {
          "internalType": "uint256",
          "name": "_postId",
          "type": "uint256"
        },
        {
          "internalType": "string",
          "name": "_commentContent",
          "type": "string"
        },
        {
          "internalType": "address",
          "name": "_commentAuthor",
          "type": "address"
        }
      ],
      "name": "postComment",
      "outputs": [],
      "stateMutability": "nonpayable",
      "type": "function"
    },
    {
      "inputs": [],
      "name": "postCount",
      "outputs": [
        {
          "internalType": "uint256",
          "name": "",
          "type": "uint256"
        }
      ],
      "stateMutability": "view",
      "type": "function"
    },
    {
      "inputs": [
        {
          "internalType": "uint256",
          "name": "",
          "type": "uint256"
        }
      ],
      "name": "posts",
      "outputs": [
        {
          "internalType": "uint256",
          "name": "id",
          "type": "uint256"
        },
        {
          "internalType": "string",
          "name": "hash",
          "type": "string"
        },
        {
          "internalType": "uint256",
          "name": "tipAmount",
          "type": "uint256"
        },
        {
          "internalType": "address payable",
          "name": "author",
          "type": "address"
        }
      ],
      "stateMutability": "view",
      "type": "function"
    },
    {
      "inputs": [
        {
          "internalType": "address",
          "name": "",
          "type": "address"
        }
      ],
      "name": "profiles",
      "outputs": [
        {
          "internalType": "uint256",
          "name": "",
          "type": "uint256"
        }
      ],
      "stateMutability": "view",
      "type": "function"
    },
    {
      "inputs": [],
      "name": "reportCount",
      "outputs": [
        {
          "internalType": "uint256",
          "name": "",
          "type": "uint256"
        }
      ],
      "stateMutability": "view",
      "type": "function"
    },
    {
      "inputs": [
        {
          "internalType": "uint256",
          "name": "",
          "type": "uint256"
        }
      ],
      "name": "reports",
      "outputs": [
        {
          "internalType": "uint256",
          "name": "id",
          "type": "uint256"
        },
        {
          "internalType": "string",
          "name": "hash",
          "type": "string"
        },
        {
          "internalType": "uint256",
          "name": "tipAmount",
          "type": "uint256"
        },
        {
          "internalType": "address payable",
          "name": "author",
          "type": "address"
        }
      ],
      "stateMutability": "view",
      "type": "function"
    },
    {
      "inputs": [
        {
          "internalType": "address",
          "name": "from",
          "type": "address"
        },
        {
          "internalType": "address",
          "name": "to",
          "type": "address"
        },
        {
          "internalType": "uint256",
          "name": "tokenId",
          "type": "uint256"
        }
      ],
      "name": "safeTransferFrom",
      "outputs": [],
      "stateMutability": "nonpayable",
      "type": "function"
    },
    {
      "inputs": [
        {
          "internalType": "address",
          "name": "from",
          "type": "address"
        },
        {
          "internalType": "address",
          "name": "to",
          "type": "address"
        },
        {
          "internalType": "uint256",
          "name": "tokenId",
          "type": "uint256"
        },
        {
          "internalType": "bytes",
          "name": "_data",
          "type": "bytes"
        }
      ],
      "name": "safeTransferFrom",
      "outputs": [],
      "stateMutability": "nonpayable",
      "type": "function"
    },
    {
      "inputs": [
        {
          "internalType": "address",
          "name": "operator",
          "type": "address"
        },
        {
          "internalType": "bool",
          "name": "approved",
          "type": "bool"
        }
      ],
      "name": "setApprovalForAll",
      "outputs": [],
      "stateMutability": "nonpayable",
      "type": "function"
    },
    {
      "inputs": [
        {
          "internalType": "uint256",
          "name": "_id",
          "type": "uint256"
        }
      ],
      "name": "setProfile",
      "outputs": [],
      "stateMutability": "nonpayable",
      "type": "function"
    },
    {
      "inputs": [
        {
          "internalType": "bytes4",
          "name": "interfaceId",
          "type": "bytes4"
        }
      ],
      "name": "supportsInterface",
      "outputs": [
        {
          "internalType": "bool",
          "name": "",
          "type": "bool"
        }
      ],
      "stateMutability": "view",
      "type": "function"
    },
    {
      "inputs": [],
      "name": "symbol",
      "outputs": [
        {
          "internalType": "string",
          "name": "",
          "type": "string"
        }
      ],
      "stateMutability": "view",
      "type": "function"
    },
    {
      "inputs": [
        {
          "internalType": "uint256",
          "name": "_id",
          "type": "uint256"
        }
      ],
      "name": "tipPostOwner",
      "outputs": [],
      "stateMutability": "payable",
      "type": "function"
    },
    {
      "inputs": [],
      "name": "tokenCount",
      "outputs": [
        {
          "internalType": "uint256",
          "name": "",
          "type": "uint256"
        }
      ],
      "stateMutability": "view",
      "type": "function"
    },
    {
      "inputs": [
        {
          "internalType": "uint256",
          "name": "tokenId",
          "type": "uint256"
        }
      ],
      "name": "tokenURI",
      "outputs": [
        {
          "internalType": "string",
          "name": "",
          "type": "string"
        }
      ],
      "stateMutability": "view",
      "type": "function"
    },
    {
      "inputs": [
        {
          "internalType": "address",
          "name": "from",
          "type": "address"
        },
        {
          "internalType": "address",
          "name": "to",
          "type": "address"
        },
        {
          "internalType": "uint256",
          "name": "tokenId",
          "type": "uint256"
        }
      ],
      "name": "transferFrom",
      "outputs": [],
      "stateMutability": "nonpayable",
      "type": "function"
    },
    {
      "inputs": [
        {
          "internalType": "string",
          "name": "_postHash",
          "type": "string"
        }
      ],
      "name": "uploadPost",
      "outputs": [],
      "stateMutability": "nonpayable",
      "type": "function"
    },
    {
      "inputs": [
        {
          "internalType": "string",
          "name": "_reportHash",
          "type": "string"
        }
      ],
      "name": "uploadReport",
      "outputs": [],
      "stateMutability": "nonpayable",
      "type": "function"
    },
    {
      "inputs": [
        {
          "internalType": "uint256",
          "name": "_postId",
          "type": "uint256"
        },
        {
          "internalType": "uint256",
          "name": "_commentNumber",
          "type": "uint256"
        }
      ],
      "name": "viewComment",
      "outputs": [
        {
          "components": [
            {
              "internalType": "string",
              "name": "commentContent",
              "type": "string"
            },
            {
              "internalType": "address",
              "name": "commentAuthor",
              "type": "address"
            }
          ],
          "internalType": "struct Decentratwitter.comment",
          "name": "",
          "type": "tuple"
        }
      ],
      "stateMutability": "view",
      "type": "function"
    }
  ],
  "bytecode": "0x60806040523480156200001157600080fd5b506040518060400160405280600f81526020017f446563656e7472617477697474657200000000000000000000000000000000008152506040518060400160405280600481526020017f4441505000000000000000000000000000000000000000000000000000000000815250816000908051906020019062000096929190620000b8565b508060019080519060200190620000af929190620000b8565b505050620001cd565b828054620000c69062000168565b90600052602060002090601f016020900481019282620000ea576000855562000136565b82601f106200010557805160ff191683800117855562000136565b8280016001018555821562000136579182015b828111156200013557825182559160200191906001019062000118565b5b50905062000145919062000149565b5090565b5b80821115620001645760008160009055506001016200014a565b5090565b600060028204905060018216806200018157607f821691505b602082108114156200019857620001976200019e565b5b50919050565b7f4e487b7100000000000000000000000000000000000000000000000000000000600052602260045260246000fd5b614b4a80620001dd6000396000f3fe6080604052600436106101cd5760003560e01c806370a08231116100f7578063bdd05adb11610095578063d6313c0611610064578063d6313c06146106d8578063d85d3d27146106f4578063e985e9c514610731578063f3d3ddfa1461076e576101cd565b8063bdd05adb146105f5578063c4a608cc1461061e578063c87b56dd1461065b578063c942adf714610698576101cd565b80639f181b5e116100d15780639f181b5e1461053b578063a22cb46514610566578063b88d4fde1461058f578063bbe15627146105b8576101cd565b806370a08231146104aa57806385d3cb37146104e757806395d89b4114610510576101cd565b8063185c6f841161016f57806342842e0e1161013e57806342842e0e146103f25780634919a7681461041b5780636352211e14610444578063684b083414610481576101cd565b8063185c6f841461033657806323b872dd14610361578063305611001461038a578063355933f2146103b5576101cd565b8063081812fc116101ab578063081812fc14610265578063095ea7b3146102a25780630b1e7f83146102cb57806317906c2e1461030b576101cd565b806301ffc9a7146101d2578063047b07bf1461020f57806306fdde031461023a575b600080fd5b3480156101de57600080fd5b506101f960048036038101906101f49190613397565b610799565b6040516102069190613caa565b60405180910390f35b34801561021b57600080fd5b5061022461087b565b6040516102319190613c88565b60405180910390f35b34801561024657600080fd5b5061024f6109cb565b60405161025c9190613cc5565b60405180910390f35b34801561027157600080fd5b5061028c6004803603810190610287919061342a565b610a5d565b6040516102999190613bdd565b60405180910390f35b3480156102ae57600080fd5b506102c960048036038101906102c4919061335b565b610ae2565b005b3480156102d757600080fd5b506102f260048036038101906102ed919061342a565b610bfa565b6040516103029493929190614010565b60405180910390f35b34801561031757600080fd5b50610320610cd2565b60405161032d9190613fa9565b60405180910390f35b34801561034257600080fd5b5061034b610cd8565b6040516103589190613fa9565b60405180910390f35b34801561036d57600080fd5b5061038860048036038101906103839190613255565b610cde565b005b34801561039657600080fd5b5061039f610d3e565b6040516103ac9190613c44565b60405180910390f35b3480156103c157600080fd5b506103dc60048036038101906103d7919061342a565b610f4b565b6040516103e99190613fa9565b60405180910390f35b3480156103fe57600080fd5b5061041960048036038101906104149190613255565b610f63565b005b34801561042757600080fd5b50610442600480360381019061043d9190613453565b610f83565b005b34801561045057600080fd5b5061046b6004803603810190610466919061342a565b6110f1565b6040516104789190613bdd565b60405180910390f35b34801561048d57600080fd5b506104a860048036038101906104a391906133e9565b6111a3565b005b3480156104b657600080fd5b506104d160048036038101906104cc91906131f0565b611357565b6040516104de9190613fa9565b60405180910390f35b3480156104f357600080fd5b5061050e6004803603810190610509919061342a565b61140f565b005b34801561051c57600080fd5b506105256114cc565b6040516105329190613cc5565b60405180910390f35b34801561054757600080fd5b5061055061155e565b60405161055d9190613fa9565b60405180910390f35b34801561057257600080fd5b5061058d6004803603810190610588919061331f565b611564565b005b34801561059b57600080fd5b506105b660048036038101906105b191906132a4565b61157a565b005b3480156105c457600080fd5b506105df60048036038101906105da91906131f0565b6115dc565b6040516105ec9190613fa9565b60405180910390f35b34801561060157600080fd5b5061061c600480360381019061061791906133e9565b6115f4565b005b34801561062a57600080fd5b50610645600480360381019061064091906134bf565b6117a8565b6040516106529190613f87565b60405180910390f35b34801561066757600080fd5b50610682600480360381019061067d919061342a565b61194f565b60405161068f9190613cc5565b60405180910390f35b3480156106a457600080fd5b506106bf60048036038101906106ba919061342a565b611aa1565b6040516106cf9493929190614010565b60405180910390f35b6106f260048036038101906106ed919061342a565b611b79565b005b34801561070057600080fd5b5061071b600480360381019061071691906133e9565b611e9b565b6040516107289190613fa9565b60405180910390f35b34801561073d57600080fd5b5061075860048036038101906107539190613219565b611ee2565b6040516107659190613caa565b60405180910390f35b34801561077a57600080fd5b50610783611f76565b6040516107909190613c66565b60405180910390f35b60007f80ac58cd000000000000000000000000000000000000000000000000000000007bffffffffffffffffffffffffffffffffffffffffffffffffffffffff1916827bffffffffffffffffffffffffffffffffffffffffffffffffffffffff1916148061086457507f5b5e139f000000000000000000000000000000000000000000000000000000007bffffffffffffffffffffffffffffffffffffffffffffffffffffffff1916827bffffffffffffffffffffffffffffffffffffffffffffffffffffffff1916145b80610874575061087382612183565b5b9050919050565b606061088633611357565b67ffffffffffffffff8111156108c5577f4e487b7100000000000000000000000000000000000000000000000000000000600052604160045260246000fd5b6040519080825280602002602001820160405280156108f35781602001602082028036833780820191505090505b509050600080600954905060005b818110156109c5573373ffffffffffffffffffffffffffffffffffffffff1661093560018361093091906141e2565b6110f1565b73ffffffffffffffffffffffffffffffffffffffff1614156109b25760018161095e91906141e2565b848481518110610997577f4e487b7100000000000000000000000000000000000000000000000000000000600052603260045260246000fd5b60200260200101818152505082806109ae906143da565b9350505b80806109bd906143da565b915050610901565b50505090565b6060600080546109da90614377565b80601f0160208091040260200160405190810160405280929190818152602001828054610a0690614377565b8015610a535780601f10610a2857610100808354040283529160200191610a53565b820191906000526020600020905b815481529060010190602001808311610a3657829003601f168201915b5050505050905090565b6000610a68826121ed565b610aa7576040517f08c379a0000000000000000000000000000000000000000000000000000000008152600401610a9e90613e87565b60405180910390fd5b6004600083815260200190815260200160002060009054906101000a900473ffffffffffffffffffffffffffffffffffffffff169050919050565b6000610aed826110f1565b90508073ffffffffffffffffffffffffffffffffffffffff168373ffffffffffffffffffffffffffffffffffffffff161415610b5e576040517f08c379a0000000000000000000000000000000000000000000000000000000008152600401610b5590613ee7565b60405180910390fd5b8073ffffffffffffffffffffffffffffffffffffffff16610b7d612259565b73ffffffffffffffffffffffffffffffffffffffff161480610bac5750610bab81610ba6612259565b611ee2565b5b610beb576040517f08c379a0000000000000000000000000000000000000000000000000000000008152600401610be290613da7565b60405180910390fd5b610bf58383612261565b505050565b600c602052806000526040600020600091509050806000015490806001018054610c2390614377565b80601f0160208091040260200160405190810160405280929190818152602001828054610c4f90614377565b8015610c9c5780601f10610c7157610100808354040283529160200191610c9c565b820191906000526020600020905b815481529060010190602001808311610c7f57829003601f168201915b5050505050908060020154908060030160009054906101000a900473ffffffffffffffffffffffffffffffffffffffff16905084565b600a5481565b600b5481565b610cef610ce9612259565b8261231a565b610d2e576040517f08c379a0000000000000000000000000000000000000000000000000000000008152600401610d2590613f67565b60405180910390fd5b610d398383836123f8565b505050565b6060600a5467ffffffffffffffff811115610d82577f4e487b7100000000000000000000000000000000000000000000000000000000600052604160045260246000fd5b604051908082528060200260200182016040528015610dbb57816020015b610da8612f1e565b815260200190600190039081610da05790505b50905060005b8151811015610f4757600c6000600183610ddb91906141e2565b815260200190815260200160002060405180608001604052908160008201548152602001600182018054610e0e90614377565b80601f0160208091040260200160405190810160405280929190818152602001828054610e3a90614377565b8015610e875780601f10610e5c57610100808354040283529160200191610e87565b820191906000526020600020905b815481529060010190602001808311610e6a57829003601f168201915b50505050508152602001600282015481526020016003820160009054906101000a900473ffffffffffffffffffffffffffffffffffffffff1673ffffffffffffffffffffffffffffffffffffffff1673ffffffffffffffffffffffffffffffffffffffff1681525050828281518110610f29577f4e487b7100000000000000000000000000000000000000000000000000000000600052603260045260246000fd5b60200260200101819052508080610f3f906143da565b915050610dc1565b5090565b60076020528060005260406000206000915090505481565b610f7e8383836040518060200160405280600081525061157a565b505050565b610f8b612f5c565b83838080601f016020809104026020016040519081016040528093929190818152602001838380828437600081840152601f19601f82011690508083019250505050505050816000018190525081816020019073ffffffffffffffffffffffffffffffffffffffff16908173ffffffffffffffffffffffffffffffffffffffff1681525050600860008681526020019081526020016000208190806001815401808255809150506001900390600052602060002090600202016000909190919091506000820151816000019080519060200190611069929190612f8c565b5060208201518160010160006101000a81548173ffffffffffffffffffffffffffffffffffffffff021916908373ffffffffffffffffffffffffffffffffffffffff1602179055505050600160076000878152602001908152602001600020546110d391906141e2565b60076000878152602001908152602001600020819055505050505050565b6000806002600084815260200190815260200160002060009054906101000a900473ffffffffffffffffffffffffffffffffffffffff169050600073ffffffffffffffffffffffffffffffffffffffff168173ffffffffffffffffffffffffffffffffffffffff16141561119a576040517f08c379a000000000000000000000000000000000000000000000000000000000815260040161119190613de7565b60405180910390fd5b80915050919050565b60006111ae33611357565b116111ee576040517f08c379a00000000000000000000000000000000000000000000000000000000081526004016111e590613f47565b60405180910390fd5b6000815111611232576040517f08c379a000000000000000000000000000000000000000000000000000000000815260040161122990613ea7565b60405180910390fd5b600b6000815480929190611245906143da565b91905055506040518060800160405280600b548152602001828152602001600081526020013373ffffffffffffffffffffffffffffffffffffffff16815250600d6000600b5481526020019081526020016000206000820151816000015560208201518160010190805190602001906112bf929190612f8c565b506040820151816002015560608201518160030160006101000a81548173ffffffffffffffffffffffffffffffffffffffff021916908373ffffffffffffffffffffffffffffffffffffffff1602179055509050507f2d3125e25ce24be39a2fc2ec1b56631236757347a3b5a22261e180f74ac80d69600b548260003360405161134c9493929190613fc4565b60405180910390a150565b60008073ffffffffffffffffffffffffffffffffffffffff168273ffffffffffffffffffffffffffffffffffffffff1614156113c8576040517f08c379a00000000000000000000000000000000000000000000000000000000081526004016113bf90613dc7565b60405180910390fd5b600360008373ffffffffffffffffffffffffffffffffffffffff1673ffffffffffffffffffffffffffffffffffffffff168152602001908152602001600020549050919050565b3373ffffffffffffffffffffffffffffffffffffffff1661142f826110f1565b73ffffffffffffffffffffffffffffffffffffffff1614611485576040517f08c379a000000000000000000000000000000000000000000000000000000000815260040161147c90613f07565b60405180910390fd5b80600e60003373ffffffffffffffffffffffffffffffffffffffff1673ffffffffffffffffffffffffffffffffffffffff1681526020019081526020016000208190555050565b6060600180546114db90614377565b80601f016020809104026020016040519081016040528092919081815260200182805461150790614377565b80156115545780601f1061152957610100808354040283529160200191611554565b820191906000526020600020905b81548152906001019060200180831161153757829003601f168201915b5050505050905090565b60095481565b61157661156f612259565b838361265f565b5050565b61158b611585612259565b8361231a565b6115ca576040517f08c379a00000000000000000000000000000000000000000000000000000000081526004016115c190613f67565b60405180910390fd5b6115d6848484846127cc565b50505050565b600e6020528060005260406000206000915090505481565b60006115ff33611357565b1161163f576040517f08c379a000000000000000000000000000000000000000000000000000000000815260040161163690613f47565b60405180910390fd5b6000815111611683576040517f08c379a000000000000000000000000000000000000000000000000000000000815260040161167a90613ea7565b60405180910390fd5b600a6000815480929190611696906143da565b91905055506040518060800160405280600a548152602001828152602001600081526020013373ffffffffffffffffffffffffffffffffffffffff16815250600c6000600a548152602001908152602001600020600082015181600001556020820151816001019080519060200190611710929190612f8c565b506040820151816002015560608201518160030160006101000a81548173ffffffffffffffffffffffffffffffffffffffff021916908373ffffffffffffffffffffffffffffffffffffffff1602179055509050507fc66336337a24e513f909b3b25119854dba8385d51307dbc7d31d1b2805e19c7e600a548260003360405161179d9493929190613fc4565b60405180910390a150565b6117b0612f5c565b600060086000858152602001908152602001600020805480602002602001604051908101604052809291908181526020016000905b828210156118ff578382906000526020600020906002020160405180604001604052908160008201805461181890614377565b80601f016020809104026020016040519081016040528092919081815260200182805461184490614377565b80156118915780601f1061186657610100808354040283529160200191611891565b820191906000526020600020905b81548152906001019060200180831161187457829003601f168201915b505050505081526020016001820160009054906101000a900473ffffffffffffffffffffffffffffffffffffffff1673ffffffffffffffffffffffffffffffffffffffff1673ffffffffffffffffffffffffffffffffffffffff1681525050815260200190600101906117e5565b50505050905080838151811061193e577f4e487b7100000000000000000000000000000000000000000000000000000000600052603260045260246000fd5b602002602001015191505092915050565b606061195a826121ed565b611999576040517f08c379a000000000000000000000000000000000000000000000000000000000815260040161199090613e67565b60405180910390fd5b60006006600084815260200190815260200160002080546119b990614377565b80601f01602080910402602001604051908101604052809291908181526020018280546119e590614377565b8015611a325780601f10611a0757610100808354040283529160200191611a32565b820191906000526020600020905b815481529060010190602001808311611a1557829003601f168201915b505050505090506000611a43612828565b9050600081511415611a59578192505050611a9c565b600082511115611a8e578082604051602001611a76929190613bb9565b60405160208183030381529060405292505050611a9c565b611a978461283f565b925050505b919050565b600d602052806000526040600020600091509050806000015490806001018054611aca90614377565b80601f0160208091040260200160405190810160405280929190818152602001828054611af690614377565b8015611b435780601f10611b1857610100808354040283529160200191611b43565b820191906000526020600020905b815481529060010190602001808311611b2657829003601f168201915b5050505050908060020154908060030160009054906101000a900473ffffffffffffffffffffffffffffffffffffffff16905084565b600081118015611b8b5750600a548111155b611bca576040517f08c379a0000000000000000000000000000000000000000000000000000000008152600401611bc190613e27565b60405180910390fd5b6000600c600083815260200190815260200160002060405180608001604052908160008201548152602001600182018054611c0490614377565b80601f0160208091040260200160405190810160405280929190818152602001828054611c3090614377565b8015611c7d5780601f10611c5257610100808354040283529160200191611c7d565b820191906000526020600020905b815481529060010190602001808311611c6057829003601f168201915b50505050508152602001600282015481526020016003820160009054906101000a900473ffffffffffffffffffffffffffffffffffffffff1673ffffffffffffffffffffffffffffffffffffffff1673ffffffffffffffffffffffffffffffffffffffff168152505090503373ffffffffffffffffffffffffffffffffffffffff16816060015173ffffffffffffffffffffffffffffffffffffffff161415611d5b576040517f08c379a0000000000000000000000000000000000000000000000000000000008152600401611d5290613f27565b60405180910390fd5b806060015173ffffffffffffffffffffffffffffffffffffffff166108fc349081150290604051600060405180830381858888f19350505050158015611da5573d6000803e3d6000fd5b503481604001818151611db891906141e2565b9150818152505080600c6000848152602001908152602001600020600082015181600001556020820151816001019080519060200190611df9929190612f8c565b506040820151816002015560608201518160030160006101000a81548173ffffffffffffffffffffffffffffffffffffffff021916908373ffffffffffffffffffffffffffffffffffffffff1602179055509050507f20988fe475351e75813672abada1dddb7ac67cbbeb81e61e1160b8329d8cdf1c82826020015183604001518460600151604051611e8f9493929190614010565b60405180910390a15050565b600060096000815480929190611eb0906143da565b9190505550611ec1336009546128e6565b611ecd60095483612904565b611ed860095461140f565b6009549050919050565b6000600560008473ffffffffffffffffffffffffffffffffffffffff1673ffffffffffffffffffffffffffffffffffffffff16815260200190815260200160002060008373ffffffffffffffffffffffffffffffffffffffff1673ffffffffffffffffffffffffffffffffffffffff16815260200190815260200160002060009054906101000a900460ff16905092915050565b6060600b5467ffffffffffffffff811115611fba577f4e487b7100000000000000000000000000000000000000000000000000000000600052604160045260246000fd5b604051908082528060200260200182016040528015611ff357816020015b611fe0613012565b815260200190600190039081611fd85790505b50905060005b815181101561217f57600d600060018361201391906141e2565b81526020019081526020016000206040518060800160405290816000820154815260200160018201805461204690614377565b80601f016020809104026020016040519081016040528092919081815260200182805461207290614377565b80156120bf5780601f10612094576101008083540402835291602001916120bf565b820191906000526020600020905b8154815290600101906020018083116120a257829003601f168201915b50505050508152602001600282015481526020016003820160009054906101000a900473ffffffffffffffffffffffffffffffffffffffff1673ffffffffffffffffffffffffffffffffffffffff1673ffffffffffffffffffffffffffffffffffffffff1681525050828281518110612161577f4e487b7100000000000000000000000000000000000000000000000000000000600052603260045260246000fd5b60200260200101819052508080612177906143da565b915050611ff9565b5090565b60007f01ffc9a7000000000000000000000000000000000000000000000000000000007bffffffffffffffffffffffffffffffffffffffffffffffffffffffff1916827bffffffffffffffffffffffffffffffffffffffffffffffffffffffff1916149050919050565b60008073ffffffffffffffffffffffffffffffffffffffff166002600084815260200190815260200160002060009054906101000a900473ffffffffffffffffffffffffffffffffffffffff1673ffffffffffffffffffffffffffffffffffffffff1614159050919050565b600033905090565b816004600083815260200190815260200160002060006101000a81548173ffffffffffffffffffffffffffffffffffffffff021916908373ffffffffffffffffffffffffffffffffffffffff160217905550808273ffffffffffffffffffffffffffffffffffffffff166122d4836110f1565b73ffffffffffffffffffffffffffffffffffffffff167f8c5be1e5ebec7d5bd14f71427d1e84f3dd0314c0f7b2291e5b200ac8c7c3b92560405160405180910390a45050565b6000612325826121ed565b612364576040517f08c379a000000000000000000000000000000000000000000000000000000000815260040161235b90613d87565b60405180910390fd5b600061236f836110f1565b90508073ffffffffffffffffffffffffffffffffffffffff168473ffffffffffffffffffffffffffffffffffffffff1614806123de57508373ffffffffffffffffffffffffffffffffffffffff166123c684610a5d565b73ffffffffffffffffffffffffffffffffffffffff16145b806123ef57506123ee8185611ee2565b5b91505092915050565b8273ffffffffffffffffffffffffffffffffffffffff16612418826110f1565b73ffffffffffffffffffffffffffffffffffffffff161461246e576040517f08c379a000000000000000000000000000000000000000000000000000000000815260040161246590613d07565b60405180910390fd5b600073ffffffffffffffffffffffffffffffffffffffff168273ffffffffffffffffffffffffffffffffffffffff1614156124de576040517f08c379a00000000000000000000000000000000000000000000000000000000081526004016124d590613d47565b60405180910390fd5b6124e9838383612978565b6124f4600082612261565b6001600360008573ffffffffffffffffffffffffffffffffffffffff1673ffffffffffffffffffffffffffffffffffffffff16815260200190815260200160002060008282546125449190614269565b925050819055506001600360008473ffffffffffffffffffffffffffffffffffffffff1673ffffffffffffffffffffffffffffffffffffffff168152602001908152602001600020600082825461259b91906141e2565b92505081905550816002600083815260200190815260200160002060006101000a81548173ffffffffffffffffffffffffffffffffffffffff021916908373ffffffffffffffffffffffffffffffffffffffff160217905550808273ffffffffffffffffffffffffffffffffffffffff168473ffffffffffffffffffffffffffffffffffffffff167fddf252ad1be2c89b69c2b068fc378daa952ba7f163c4a11628f55a4df523b3ef60405160405180910390a461265a83838361297d565b505050565b8173ffffffffffffffffffffffffffffffffffffffff168373ffffffffffffffffffffffffffffffffffffffff1614156126ce576040517f08c379a00000000000000000000000000000000000000000000000000000000081526004016126c590613d67565b60405180910390fd5b80600560008573ffffffffffffffffffffffffffffffffffffffff1673ffffffffffffffffffffffffffffffffffffffff16815260200190815260200160002060008473ffffffffffffffffffffffffffffffffffffffff1673ffffffffffffffffffffffffffffffffffffffff16815260200190815260200160002060006101000a81548160ff0219169083151502179055508173ffffffffffffffffffffffffffffffffffffffff168373ffffffffffffffffffffffffffffffffffffffff167f17307eab39ab6107e8899845ad3d59bd9653f200f220920489ca2b5937696c31836040516127bf9190613caa565b60405180910390a3505050565b6127d78484846123f8565b6127e384848484612982565b612822576040517f08c379a000000000000000000000000000000000000000000000000000000000815260040161281990613ce7565b60405180910390fd5b50505050565b606060405180602001604052806000815250905090565b606061284a826121ed565b612889576040517f08c379a000000000000000000000000000000000000000000000000000000000815260040161288090613ec7565b60405180910390fd5b6000612893612828565b905060008151116128b357604051806020016040528060008152506128de565b806128bd84612b19565b6040516020016128ce929190613bb9565b6040516020818303038152906040525b915050919050565b612900828260405180602001604052806000815250612cc6565b5050565b61290d826121ed565b61294c576040517f08c379a000000000000000000000000000000000000000000000000000000000815260040161294390613e07565b60405180910390fd5b80600660008481526020019081526020016000209080519060200190612973929190612f8c565b505050565b505050565b505050565b60006129a38473ffffffffffffffffffffffffffffffffffffffff16612d21565b15612b0c578373ffffffffffffffffffffffffffffffffffffffff1663150b7a026129cc612259565b8786866040518563ffffffff1660e01b81526004016129ee9493929190613bf8565b602060405180830381600087803b158015612a0857600080fd5b505af1925050508015612a3957506040513d601f19601f82011682018060405250810190612a3691906133c0565b60015b612abc573d8060008114612a69576040519150601f19603f3d011682016040523d82523d6000602084013e612a6e565b606091505b50600081511415612ab4576040517f08c379a0000000000000000000000000000000000000000000000000000000008152600401612aab90613ce7565b60405180910390fd5b805181602001fd5b63150b7a0260e01b7bffffffffffffffffffffffffffffffffffffffffffffffffffffffff1916817bffffffffffffffffffffffffffffffffffffffffffffffffffffffff191614915050612b11565b600190505b949350505050565b60606000821415612b61576040518060400160405280600181526020017f30000000000000000000000000000000000000000000000000000000000000008152509050612cc1565b600082905060005b60008214612b93578080612b7c906143da565b915050600a82612b8c9190614238565b9150612b69565b60008167ffffffffffffffff811115612bd5577f4e487b7100000000000000000000000000000000000000000000000000000000600052604160045260246000fd5b6040519080825280601f01601f191660200182016040528015612c075781602001600182028036833780820191505090505b5090505b60008514612cba57600182612c209190614269565b9150600a85612c2f9190614423565b6030612c3b91906141e2565b60f81b818381518110612c77577f4e487b7100000000000000000000000000000000000000000000000000000000600052603260045260246000fd5b60200101907effffffffffffffffffffffffffffffffffffffffffffffffffffffffffffff1916908160001a905350600a85612cb39190614238565b9450612c0b565b8093505050505b919050565b612cd08383612d44565b612cdd6000848484612982565b612d1c576040517f08c379a0000000000000000000000000000000000000000000000000000000008152600401612d1390613ce7565b60405180910390fd5b505050565b6000808273ffffffffffffffffffffffffffffffffffffffff163b119050919050565b600073ffffffffffffffffffffffffffffffffffffffff168273ffffffffffffffffffffffffffffffffffffffff161415612db4576040517f08c379a0000000000000000000000000000000000000000000000000000000008152600401612dab90613e47565b60405180910390fd5b612dbd816121ed565b15612dfd576040517f08c379a0000000000000000000000000000000000000000000000000000000008152600401612df490613d27565b60405180910390fd5b612e0960008383612978565b6001600360008473ffffffffffffffffffffffffffffffffffffffff1673ffffffffffffffffffffffffffffffffffffffff1681526020019081526020016000206000828254612e5991906141e2565b92505081905550816002600083815260200190815260200160002060006101000a81548173ffffffffffffffffffffffffffffffffffffffff021916908373ffffffffffffffffffffffffffffffffffffffff160217905550808273ffffffffffffffffffffffffffffffffffffffff16600073ffffffffffffffffffffffffffffffffffffffff167fddf252ad1be2c89b69c2b068fc378daa952ba7f163c4a11628f55a4df523b3ef60405160405180910390a4612f1a6000838361297d565b5050565b6040518060800160405280600081526020016060815260200160008152602001600073ffffffffffffffffffffffffffffffffffffffff1681525090565b604051806040016040528060608152602001600073ffffffffffffffffffffffffffffffffffffffff1681525090565b828054612f9890614377565b90600052602060002090601f016020900481019282612fba5760008555613001565b82601f10612fd357805160ff1916838001178555613001565b82800160010185558215613001579182015b82811115613000578251825591602001919060010190612fe5565b5b50905061300e9190613050565b5090565b6040518060800160405280600081526020016060815260200160008152602001600073ffffffffffffffffffffffffffffffffffffffff1681525090565b5b80821115613069576000816000905550600101613051565b5090565b600061308061307b84614081565b61405c565b90508281526020810184848401111561309857600080fd5b6130a3848285614335565b509392505050565b60006130be6130b9846140b2565b61405c565b9050828152602081018484840111156130d657600080fd5b6130e1848285614335565b509392505050565b6000813590506130f881614ab8565b92915050565b60008135905061310d81614acf565b92915050565b60008135905061312281614ae6565b92915050565b60008151905061313781614ae6565b92915050565b600082601f83011261314e57600080fd5b813561315e84826020860161306d565b91505092915050565b60008083601f84011261317957600080fd5b8235905067ffffffffffffffff81111561319257600080fd5b6020830191508360018202830111156131aa57600080fd5b9250929050565b600082601f8301126131c257600080fd5b81356131d28482602086016130ab565b91505092915050565b6000813590506131ea81614afd565b92915050565b60006020828403121561320257600080fd5b6000613210848285016130e9565b91505092915050565b6000806040838503121561322c57600080fd5b600061323a858286016130e9565b925050602061324b858286016130e9565b9150509250929050565b60008060006060848603121561326a57600080fd5b6000613278868287016130e9565b9350506020613289868287016130e9565b925050604061329a868287016131db565b9150509250925092565b600080600080608085870312156132ba57600080fd5b60006132c8878288016130e9565b94505060206132d9878288016130e9565b93505060406132ea878288016131db565b925050606085013567ffffffffffffffff81111561330757600080fd5b6133138782880161313d565b91505092959194509250565b6000806040838503121561333257600080fd5b6000613340858286016130e9565b9250506020613351858286016130fe565b9150509250929050565b6000806040838503121561336e57600080fd5b600061337c858286016130e9565b925050602061338d858286016131db565b9150509250929050565b6000602082840312156133a957600080fd5b60006133b784828501613113565b91505092915050565b6000602082840312156133d257600080fd5b60006133e084828501613128565b91505092915050565b6000602082840312156133fb57600080fd5b600082013567ffffffffffffffff81111561341557600080fd5b613421848285016131b1565b91505092915050565b60006020828403121561343c57600080fd5b600061344a848285016131db565b91505092915050565b6000806000806060858703121561346957600080fd5b6000613477878288016131db565b945050602085013567ffffffffffffffff81111561349457600080fd5b6134a087828801613167565b935093505060406134b3878288016130e9565b91505092959194509250565b600080604083850312156134d257600080fd5b60006134e0858286016131db565b92505060206134f1858286016131db565b9150509250929050565b60006135078383613a98565b905092915050565b600061351b8383613afb565b905092915050565b600061352f8383613b9b565b60208301905092915050565b613544816142af565b82525050565b613553816142af565b82525050565b6135628161429d565b82525050565b6135718161429d565b82525050565b600061358282614113565b61358c8185614171565b93508360208202850161359e856140e3565b8060005b858110156135da57848403895281516135bb85826134fb565b94506135c68361414a565b925060208a019950506001810190506135a2565b50829750879550505050505092915050565b60006135f78261411e565b6136018185614182565b935083602082028501613613856140f3565b8060005b8581101561364f5784840389528151613630858261350f565b945061363b83614157565b925060208a01995050600181019050613617565b50829750879550505050505092915050565b600061366c82614129565b6136768185614193565b935061368183614103565b8060005b838110156136b25781516136998882613523565b97506136a483614164565b925050600181019050613685565b5085935050505092915050565b6136c8816142c1565b82525050565b60006136d982614134565b6136e381856141a4565b93506136f3818560208601614344565b6136fc81614510565b840191505092915050565b61371081614323565b82525050565b60006137218261413f565b61372b81856141b5565b935061373b818560208601614344565b61374481614510565b840191505092915050565b600061375a8261413f565b61376481856141c6565b9350613774818560208601614344565b61377d81614510565b840191505092915050565b60006137938261413f565b61379d81856141d7565b93506137ad818560208601614344565b80840191505092915050565b60006137c66032836141c6565b91506137d182614521565b604082019050919050565b60006137e96025836141c6565b91506137f482614570565b604082019050919050565b600061380c601c836141c6565b9150613817826145bf565b602082019050919050565b600061382f6024836141c6565b915061383a826145e8565b604082019050919050565b60006138526019836141c6565b915061385d82614637565b602082019050919050565b6000613875602c836141c6565b915061388082614660565b604082019050919050565b60006138986038836141c6565b91506138a3826146af565b604082019050919050565b60006138bb602a836141c6565b91506138c6826146fe565b604082019050919050565b60006138de6029836141c6565b91506138e98261474d565b604082019050919050565b6000613901602e836141c6565b915061390c8261479c565b604082019050919050565b6000613924600f836141c6565b915061392f826147eb565b602082019050919050565b60006139476020836141c6565b915061395282614814565b602082019050919050565b600061396a6031836141c6565b91506139758261483d565b604082019050919050565b600061398d602c836141c6565b91506139988261488c565b604082019050919050565b60006139b06019836141c6565b91506139bb826148db565b602082019050919050565b60006139d3602f836141c6565b91506139de82614904565b604082019050919050565b60006139f66021836141c6565b9150613a0182614953565b604082019050919050565b6000613a196033836141c6565b9150613a24826149a2565b604082019050919050565b6000613a3c6018836141c6565b9150613a47826149f1565b602082019050919050565b6000613a5f6026836141c6565b9150613a6a82614a1a565b604082019050919050565b6000613a826031836141c6565b9150613a8d82614a69565b604082019050919050565b6000608083016000830151613ab06000860182613b9b565b5060208301518482036020860152613ac88282613716565b9150506040830151613add6040860182613b9b565b506060830151613af0606086018261353b565b508091505092915050565b6000608083016000830151613b136000860182613b9b565b5060208301518482036020860152613b2b8282613716565b9150506040830151613b406040860182613b9b565b506060830151613b53606086018261353b565b508091505092915050565b60006040830160008301518482036000860152613b7b8282613716565b9150506020830151613b906020860182613559565b508091505092915050565b613ba481614319565b82525050565b613bb381614319565b82525050565b6000613bc58285613788565b9150613bd18284613788565b91508190509392505050565b6000602082019050613bf26000830184613568565b92915050565b6000608082019050613c0d6000830187613568565b613c1a6020830186613568565b613c276040830185613baa565b8181036060830152613c3981846136ce565b905095945050505050565b60006020820190508181036000830152613c5e8184613577565b905092915050565b60006020820190508181036000830152613c8081846135ec565b905092915050565b60006020820190508181036000830152613ca28184613661565b905092915050565b6000602082019050613cbf60008301846136bf565b92915050565b60006020820190508181036000830152613cdf818461374f565b905092915050565b60006020820190508181036000830152613d00816137b9565b9050919050565b60006020820190508181036000830152613d20816137dc565b9050919050565b60006020820190508181036000830152613d40816137ff565b9050919050565b60006020820190508181036000830152613d6081613822565b9050919050565b60006020820190508181036000830152613d8081613845565b9050919050565b60006020820190508181036000830152613da081613868565b9050919050565b60006020820190508181036000830152613dc08161388b565b9050919050565b60006020820190508181036000830152613de0816138ae565b9050919050565b60006020820190508181036000830152613e00816138d1565b9050919050565b60006020820190508181036000830152613e20816138f4565b9050919050565b60006020820190508181036000830152613e4081613917565b9050919050565b60006020820190508181036000830152613e608161393a565b9050919050565b60006020820190508181036000830152613e808161395d565b9050919050565b60006020820190508181036000830152613ea081613980565b9050919050565b60006020820190508181036000830152613ec0816139a3565b9050919050565b60006020820190508181036000830152613ee0816139c6565b9050919050565b60006020820190508181036000830152613f00816139e9565b9050919050565b60006020820190508181036000830152613f2081613a0c565b9050919050565b60006020820190508181036000830152613f4081613a2f565b9050919050565b60006020820190508181036000830152613f6081613a52565b9050919050565b60006020820190508181036000830152613f8081613a75565b9050919050565b60006020820190508181036000830152613fa18184613b5e565b905092915050565b6000602082019050613fbe6000830184613baa565b92915050565b6000608082019050613fd96000830187613baa565b8181036020830152613feb818661374f565b9050613ffa6040830185613707565b614007606083018461354a565b95945050505050565b60006080820190506140256000830187613baa565b8181036020830152614037818661374f565b90506140466040830185613baa565b614053606083018461354a565b95945050505050565b6000614066614077565b905061407282826143a9565b919050565b6000604051905090565b600067ffffffffffffffff82111561409c5761409b6144e1565b5b6140a582614510565b9050602081019050919050565b600067ffffffffffffffff8211156140cd576140cc6144e1565b5b6140d682614510565b9050602081019050919050565b6000819050602082019050919050565b6000819050602082019050919050565b6000819050602082019050919050565b600081519050919050565b600081519050919050565b600081519050919050565b600081519050919050565b600081519050919050565b6000602082019050919050565b6000602082019050919050565b6000602082019050919050565b600082825260208201905092915050565b600082825260208201905092915050565b600082825260208201905092915050565b600082825260208201905092915050565b600082825260208201905092915050565b600082825260208201905092915050565b600081905092915050565b60006141ed82614319565b91506141f883614319565b9250827fffffffffffffffffffffffffffffffffffffffffffffffffffffffffffffffff0382111561422d5761422c614454565b5b828201905092915050565b600061424382614319565b915061424e83614319565b92508261425e5761425d614483565b5b828204905092915050565b600061427482614319565b915061427f83614319565b92508282101561429257614291614454565b5b828203905092915050565b60006142a8826142f9565b9050919050565b60006142ba826142f9565b9050919050565b60008115159050919050565b60007fffffffff0000000000000000000000000000000000000000000000000000000082169050919050565b600073ffffffffffffffffffffffffffffffffffffffff82169050919050565b6000819050919050565b600061432e82614319565b9050919050565b82818337600083830152505050565b60005b83811015614362578082015181840152602081019050614347565b83811115614371576000848401525b50505050565b6000600282049050600182168061438f57607f821691505b602082108114156143a3576143a26144b2565b5b50919050565b6143b282614510565b810181811067ffffffffffffffff821117156143d1576143d06144e1565b5b80604052505050565b60006143e582614319565b91507fffffffffffffffffffffffffffffffffffffffffffffffffffffffffffffffff82141561441857614417614454565b5b600182019050919050565b600061442e82614319565b915061443983614319565b92508261444957614448614483565b5b828206905092915050565b7f4e487b7100000000000000000000000000000000000000000000000000000000600052601160045260246000fd5b7f4e487b7100000000000000000000000000000000000000000000000000000000600052601260045260246000fd5b7f4e487b7100000000000000000000000000000000000000000000000000000000600052602260045260246000fd5b7f4e487b7100000000000000000000000000000000000000000000000000000000600052604160045260246000fd5b6000601f19601f8301169050919050565b7f4552433732313a207472616e7366657220746f206e6f6e20455243373231526560008201527f63656976657220696d706c656d656e7465720000000000000000000000000000602082015250565b7f4552433732313a207472616e736665722066726f6d20696e636f72726563742060008201527f6f776e6572000000000000000000000000000000000000000000000000000000602082015250565b7f4552433732313a20746f6b656e20616c7265616479206d696e74656400000000600082015250565b7f4552433732313a207472616e7366657220746f20746865207a65726f2061646460008201527f7265737300000000000000000000000000000000000000000000000000000000602082015250565b7f4552433732313a20617070726f766520746f2063616c6c657200000000000000600082015250565b7f4552433732313a206f70657261746f7220717565727920666f72206e6f6e657860008201527f697374656e7420746f6b656e0000000000000000000000000000000000000000602082015250565b7f4552433732313a20617070726f76652063616c6c6572206973206e6f74206f7760008201527f6e6572206e6f7220617070726f76656420666f7220616c6c0000000000000000602082015250565b7f4552433732313a2062616c616e636520717565727920666f7220746865207a6560008201527f726f206164647265737300000000000000000000000000000000000000000000602082015250565b7f4552433732313a206f776e657220717565727920666f72206e6f6e657869737460008201527f656e7420746f6b656e0000000000000000000000000000000000000000000000602082015250565b7f45524337323155524953746f726167653a2055524920736574206f66206e6f6e60008201527f6578697374656e7420746f6b656e000000000000000000000000000000000000602082015250565b7f496e76616c696420706f73742069640000000000000000000000000000000000600082015250565b7f4552433732313a206d696e7420746f20746865207a65726f2061646472657373600082015250565b7f45524337323155524953746f726167653a2055524920717565727920666f722060008201527f6e6f6e6578697374656e7420746f6b656e000000000000000000000000000000602082015250565b7f4552433732313a20617070726f76656420717565727920666f72206e6f6e657860008201527f697374656e7420746f6b656e0000000000000000000000000000000000000000602082015250565b7f43616e6e6f74207061737320616e20656d707479206861736800000000000000600082015250565b7f4552433732314d657461646174613a2055524920717565727920666f72206e6f60008201527f6e6578697374656e7420746f6b656e0000000000000000000000000000000000602082015250565b7f4552433732313a20617070726f76616c20746f2063757272656e74206f776e6560008201527f7200000000000000000000000000000000000000000000000000000000000000602082015250565b7f4d757374206f776e20746865206e667420796f752077616e7420746f2073656c60008201527f65637420617320796f75722070726f66696c6500000000000000000000000000602082015250565b7f43616e6e6f742074697020796f7572206f776e20706f73740000000000000000600082015250565b7f4d757374206f776e206120646563656e74726174776974746572206e6674207460008201527f6f20706f73740000000000000000000000000000000000000000000000000000602082015250565b7f4552433732313a207472616e736665722063616c6c6572206973206e6f74206f60008201527f776e6572206e6f7220617070726f766564000000000000000000000000000000602082015250565b614ac18161429d565b8114614acc57600080fd5b50565b614ad8816142c1565b8114614ae357600080fd5b50565b614aef816142cd565b8114614afa57600080fd5b50565b614b0681614319565b8114614b1157600080fd5b5056fea2646970667358221220768fba34311fa741b11d50b0ef0ef73f0095e59bcf6f5dd1db28d3b20f1e77b364736f6c63430008040033",
  "linkReferences": {},
  "deployedLinkReferences": {}
}